:1000000014C023C071C021C020C01FC081C01DC04A
:100010001CC01BC01AC019C018C017C016C015C01C
:1000200014C013C012C011C010C011241FBECFE5F0
:10003000D1E0DEBFCDBF20E0A0E6B0E001C01D9260
:10004000A436B207E1F76ED076C0DACF10BE13BE89
:1000500083B7856083BF789412BE89B7826089BFF9
:1000600008958FE187BB8BB780688BBF88B318BAC0
:1000700008958091620090916300009719F00197B4
:1000800039F1089518BA2FE936E881E0215030405F
:100090008040E1F700C0000088E088BB9FE926E8C7
:1000A00031E0915020403040E1F700C000008091E5
:1000B0006000909161008130910529F49093630074
:1000C0008093620008951092630010926200089578
:1000D00018BA8AE290E52EEF30E08150904020403F
:1000E0003040D9F7000008951F920F920FB60F927B
:1000F00011248F939F9381E090E09093610080930F
:1001000060009F918F910F900FBE0F901F901895D8
:100110001F920F920FB60F9211240F900FBE0F90E7
:100120001F90189588E087BB9CDF109263001092A7
:0A01300062009FDFFECFF894FFCFBE
:00000001FF
