:1000000014C023C0B6C021C020C01FC01EC01DC068
:100010001CC01BC01AC019C018C017C016C015C01C
:1000200014C013C012C011C010C011241FBECFE5F0
:10003000D1E0DEBFCDBF20E0A0E6B0E001C01D9260
:10004000A636B207E1F7B6D0E6C0DACF10BE13BECF
:1000500083B7856083BF12BE89B7826089BF089568
:100060008FE187BB8BB780688BBF88B318BA789451
:10007000089580916400909165008130910519F197
:100080001CF4892B49F008958230910509F447C08A
:10009000039709F462C0089518BA2FE936E881E0A1
:1000A000215030408040E1F700C0000080916200A4
:1000B000909163008130910509F44AC01092650067
:1000C00010926400089588E088BB9FE32DE033E040
:1000D000915020403040E1F700C0000018BA9FE383
:1000E0002DE033E0915020403040E1F700C00000A7
:1000F00088BB8FE39DE023E0815090402040E1F7F2
:1001000000C0000018BA3FE38DE093E0315080401A
:100110009040E1F700C0000082E090E019C088EF55
:1001200088BB2FE936E881E0215030408040E1F77C
:1001300000C0000080E187BB18BA9FE926E831E0E3
:10014000915020403040E1F700C0000083E090E093
:100150009093650080936400089580E188BB8FE7E9
:1001600094E82EE1815090402040E1F700C000006B
:1001700008951F920F920FB60F9211248F939F93A1
:1001800081E090E090936300809362009F918F9153
:100190000F900FBE0F901F9018958FEF9EEF089550
:1001A0009C01CA016F5F7F4F621B730B0DD0820FE2
:1001B000931F089517BA81E081BB52DF109265004A
:1001C0001092640056DFFECF97FB072E16F40094C2
:1001D00006D077FD08D00BD007FC05D03EF49095F3
:1001E00081959F4F0895709561957F4F0895AA1B43
:1001F000BB1B51E107C0AA1FBB1FA617B70710F012
:10020000A61BB70B881F991F5A95A9F78095909543
:0A021000BC01CD010895F894FFCF62
:00000001FF
