:1000000014C02EC0D1C02CC02BC02AC0E1C028C053
:1000100027C026C025C024C023C022C021C020C0C4
:100020001FC01EC01DC01CC01BC011241FBECFE5B9
:10003000D1E0DEBFCDBF10E0A0E6B0E0E2EBF2E041
:1000400002C005900D92A037B107D9F720E0A0E7D4
:10005000B0E001C01D92A839B207E1F70FD127C166
:10006000CFCF83E088BB089598B38FE0892788BB02
:100070000895EAE7F0E020E030E044E052E061E09B
:1000800078E08091700090917100281739070CF585
:10009000819191918230910561F024F40197B1F43E
:1000A00078BB0AC08330910531F0049779F468BBBE
:1000B00003C048BB01C058BB8FE79AE1A6E081505E
:1000C0009040A040E1F700C0000018BA2F5F3F4FFA
:1000D000D8CF0895CECF18BA089510BE13BE83B7F7
:1000E000856083BF789412BE89B7826089BF089506
:1000F0008FE087BB8BB780688BBF85B7886085BF73
:1001000088B318BA0895809196009091970000974F
:1001100019F0019731F10895E0916000F0916100CC
:100120000995E0919600F09197002091720030912E
:100130007300CF0165E070E0A9D0805A9F4FDC01C9
:1001400012968C91129790E0281739072CF0FD0138
:10015000E20FF31F838116C0109297001092960051
:1001600008958091670090E02091740030917500AF
:100170008217930789F7E0917200F0917300E05ABB
:10018000FF4F808590E090939700809396001092A7
:1001900079001092780010927700109276001092F9
:1001A00075001092740008951F920F920FB60F926F
:1001B00011248F939F9381E090E09093730080933C
:1001C00072009F918F910F900FBE0F901F90189506
:1001D0001F920F920FB60F9211242F933F934F93BC
:1001E0005F936F937F938F939F93AF93BF93EF939F
:1001F000FF9380917800909179004497A1F48091C9
:10020000960090919700019729F4E0916500F09194
:100210006600099580917400909175000196909305
:1002200075008093740080917800909179008C33F0
:10023000910571F410927900109278008091760007
:10024000909177000196909377008093760005C097
:1002500001969093790080937800FF91EF91BF9180
:10026000AF919F918F917F916F915F914F913F914E
:100270002F910F900FBE0F901F90189539DF2DDF33
:1002800010929700109296003EDFFECF0024552773
:1002900004C0080E591F880F991F009729F0769502
:1002A0006795B8F37105B9F7802D952F0895F894E7
:0202B000FFCF7E
:1002B20031000A000134000A01026A000A02030046
:00000001FF
