:100000000C94DD020C9405030C9405030C94050379
:100010000C9405030C9405030C9405030C94050340
:100020000C9405030C9405030C9405030C94050330
:100030000C9405030C9405030C9405030C94050320
:100040000C946A0F0C9405030C94DA0F0C94B40F03
:100050000C9405030C9405030C9405030C94050300
:100060000C940C100C94050300000000003E5B4F44
:100070005B3E3E6B4F6B3E1C3E7C3E1C183C7E3C08
:10008000181C577D571C1C5E7F5E1C00183C180016
:10009000FFE7C3E7FF0018241800FFE7DBE7FF30A6
:1000A000483A060E2629792926407F050507407F14
:1000B00005253F5A3CE73C5A7F3E1C1C08081C1C87
:1000C0003E7F14227F22145F5F005F5F06097F017D
:1000D0007F006689956A606060606094A2FFA29468
:1000E00008047E040810207E201008082A1C080836
:1000F0001C2A08081E101010100C1E0C1E0C303884
:100100003E3830060E3E0E06000000000000005F84
:1001100000000007000700147F147F14242A7F2AA0
:100120001223130864623649562050000807030062
:10013000001C2241000041221C002A1C7F1C2A08AE
:10014000083E080800807030000808080808000011
:1001500060600020100804023E5149453E00427F85
:10016000400072494949462141494D331814127FD4
:100170001027454545393C4A494931412111090774
:100180003649494936464949291E000014000000F5
:1001900040340000000814224114141414140041C7
:1001A00022140802015909063E415D594E7C121184
:1001B000127C7F494949363E414141227F414141BC
:1001C0003E7F494949417F090909013E4141517337
:1001D0007F0808087F00417F41002040413F017FA8
:1001E000081422417F404040407F021C027F7F0470
:1001F00008107F3E4141413E7F090909063E4151B9
:10020000215E7F09192946264949493203017F01A8
:10021000033F4040403F1F2040201F3F4038403FA9
:10022000631408146303047804036159494D4300BF
:100230007F4141410204081020004141417F0402F6
:10024000010204404040404000030708002054548D
:1002500078407F284444383844444428384444286B
:100260007F385454541800087E090218A4A49C78BE
:100270007F0804047800447D40002040403D007F1A
:100280001028440000417F40007C047804787C08FA
:100290000404783844444438FC18242418182424CE
:1002A00018FC7C08040408485454542404043F44B3
:1002B000243C4040207C1C2040201C3C4030403CE2
:1002C00044281028444C9090907C4464544C440042
:1002D00008364100000077000000413608000201A6
:1002E0000204023C2623263C1EA1A161123A404092
:1002F000207A38545455592155557941225454780F
:1003000042215554784020545579400C1E527212A7
:100310003955555559395454545939555454580030
:1003200000457C410002457D420001457C407D1234
:1003300011127DF0282528F07C5455450020545496
:100340007C547C0A097F4932494949323A44444441
:100350003A324A4848303A4141217A3A424020787C
:10036000009DA0A07D3D4242423D3D4040403D3C7D
:1003700024FF2424487E4943662B2FFC2F2BFF09A2
:1003800029F620C0887E0903205454794100004496
:100390007D413048484A32384040227A007A0A0A81
:1003A000727D0D19317D2629292F282629292926F4
:1003B00030484D4020380808080808080808382F39
:1003C00010C8ACBA2F102834FA00007B00000814C3
:1003D0002A142222142A14085500550055AA55AA99
:1003E00055AAFF55FF55FF000000FF00101010FF39
:1003F00000141414FF001010FF00FF1010F010F094
:10040000141414FC001414F700FF0000FF00FF1484
:1004100014F404FC141417101F10101F101F1414D0
:10042000141F00101010F0000000001F101010101A
:100430001F10101010F010000000FF10101010100E
:1004400010101010FF10000000FF140000FF00FF4C
:1004500000001F10170000FC04F4141417101714E8
:1004600014F404F40000FF00F7141414141414140A
:10047000F700F7141414171410101F101F1414147D
:10048000F4141010F010F000001F101F0000001FE7
:1004900014000000FC140000F010F01010FF10FF1A
:1004A000141414FF141010101F00000000F010FFAF
:1004B000FFFFFFFFF0F0F0F0F0FFFFFF0000000093
:1004C00000FFFF0F0F0F0F0F3844443844FC4A4A17
:1004D0004A347E02020606027E027E0263554941CC
:1004E000633844443C04407E201E2006027E020203
:1004F00099A5E7A5991C2A492A1C4C7201724C3017
:100500004A4D4D303048784830BC625A463D3E49ED
:100510004949007E0101017E2A2A2A2A2A44445F91
:10052000444440514A444040444A51400000FF0185
:1005300003E080FF000008086B6B08361236243693
:10054000060F090F060000181800000010100030F8
:1005500040FF0101001F01011E00191D1712003C80
:100560003C3C3C000000000000000000240027008C
:100570002A00000000080002010000030407000038
:100580000000000000000102040810204080010269
:1005900004081020010204081020000000002500BB
:1005A00028002B00040404040404040402020202D0
:1005B0000202030303030303271111241FBECFEF1D
:1005C000D8E0DEBFCDBF13E0A0E0B1E0ECE2F7E39E
:1005D00002C005900D92A23FB107D9F725E0A2EF26
:1005E000B3E001C01D92A935B207E1F712E0CDEDED
:1005F000D2E004C02197FE010E94641ACC3DD107CD
:10060000C9F70E94F2110C94941B0C940000FC0199
:1006100020812EBD0DB407FEFDCF2EB5FC01208339
:10062000089590E0FC01EE58FA4F2491FC01EA573E
:10063000FA4F3491FC01EC55FA4FE491EE23C9F0E6
:10064000222339F0233001F1A8F4213019F12230AE
:1006500029F1F0E0EE0FFF1FE656FA4FA591B49195
:100660008FB7F894EC91611126C030953E233C93EE
:100670008FBF08952730A9F02830C9F0243049F7FA
:10068000809180008F7D03C0809180008F77809360
:100690008000DFCF84B58F7784BDDBCF84B58F7DBD
:1006A000FBCF8091B0008F778093B000D2CF809144
:1006B000B0008F7DF9CF3E2BDACFCF93DF9390E060
:1006C000FC01EA57FA4F24918C559A4FFC01849112
:1006D0008823D1F090E0880F991FFC01E859FA4F68
:1006E000A591B491FC01E656FA4FC591D4916111E0
:1006F0000EC09FB7F8948C91E22FE0958E238C93D7
:100700002881E223E8839FBFDF91CF9108958FB7BF
:10071000F894EC91E22BEC938FBFF6CF8E5080646F
:1007200080937C0080917A00806480937A0080912D
:100730007A0086FDFCCF8091780090917900089531
:100740008230910538F0880F991F880F991F0597FF
:100750000197F1F708959F92AF92BF92CF92DF92E7
:10076000EF92FF920F931F93CF93DF93EC016B01F6
:100770008885998511E0892B09F010E8F601A080A1
:100780008A2D8123992493948111912C2C813D8170
:100790004E815F8160E271EA87E090E00E942E1A4C
:1007A000022FB12CE22EF12C002319F0C7010E9478
:1007B000A0038A85877F09F04FC08D858F3F89F020
:1007C0009A2D912381E009F480E0891551F0EF859D
:1007D000F8898F899923D1F19081892B808399247D
:1007E0009394E989FA898081998D892B80830023EC
:1007F00019F0C7010E94A0038E858F3F39F0EB8965
:10080000FC898081988D892309F0B12AE989FA89C8
:100810009081898D8095892380838E858F3F11F00B
:10082000F601B08288859985892B09F044C0110FA3
:100830001111BACFDF91CF911F910F91FF90EF90DF
:10084000DF90CF90BF90AF909F900895908180955A
:1008500089238083912CC5CFE989FA898081998D7C
:10086000892B8083002319F0C7010E94A0038D8586
:100870008F3F49F0EF85F8898F899A2D9123B9F040
:100880009081892B8083E989FA899081898D80956F
:10089000892380838E858F3F09F4BFCFEB89FC8944
:1008A0008081988D892309F4B8CFB12AB6CF908181
:1008B00080958923E7CF1695BBCFAF92BF92CF9299
:1008C000DF92EF92FF920F931F93CF93DF931F92CC
:1008D000CDB7DEB78C015B016A01DC018D919C9183
:1008E0001197892B39F01296ED91FC9190818181BD
:1008F0009CBD8DBDF80183858F3F19F060E00E949B
:1009000011037501CA0CDB1CCE14DF04A9F0D7015A
:100910008D917D018983F80180819181892B29F056
:10092000CE0101960E940703EFCFBE016F5F7F4F9C
:10093000C8010E94AB03E8CFD8011B968C918F3F72
:1009400019F061E00E94110381E00F90DF91CF91D7
:100950001F910F91FF90EF90DF90CF90BF90AF90DD
:1009600008953FB7F89480918D0490918E04A091E2
:100970008F04B091900426B5A89B05C02F3F19F0B5
:100980000196A11DB11D3FBFBA2FA92F982F88270F
:10099000BC01CD01620F711D811D911D42E0660FEA
:1009A000771F881F991F4A95D1F708958F929F92BC
:1009B000AF92BF92CF92DF92EF92FF924B015C0118
:1009C0000E94B1046B017C010E94B1046C197D0985
:1009D0008E099F09683E734081059105A8F321E0C7
:1009E000821A9108A108B10888EEC80E83E0D81ECB
:1009F000E11CF11C81149104A104B10429F7FF90BA
:100A0000EF90DF90CF90BF90AF909F908F90089520
:100A1000AF92BF92CF92DF92EF92FF920F931F930C
:100A2000CF93DF936C017B018B01040F151FEB014A
:100A30005E01AE18BF08C017D10759F06991D60101
:100A4000ED91FC910190F081E02DC6010995892B73
:100A500079F7C501DF91CF911F910F91FF90EF9032
:100A6000DF90CF90BF90AF900895FC01538D448DDF
:100A7000252F30E0842F90E0821B930B541710F049
:100A8000CF96089501970895FC01918D828D981756
:100A900061F0A28DAE0FBF2FB11D5D968C91928D2E
:100AA0009F5F9F73928F90E008958FEF9FEF08955F
:100AB000FC01918D828D981731F0828DE80FF11D28
:100AC000858D90E008958FEF9FEF0895FC01918D43
:100AD000228D892F90E0805C9F4F821B91098F733C
:100AE0009927089581E994E00E94660521E0892B09
:100AF00009F420E0822F089580E090E0892B29F00E
:100B00000E94720581110C9400000895FC01A48DCF
:100B1000A80FB92FB11DA35ABF4F2C91848D90E01F
:100B200001968F739927848FA689B7892C93A08902
:100B3000B1898C91837080648C93938D848D98138C
:100B400006C00288F389E02D80818F7D808308951F
:100B5000EF92FF920F931F93CF93DF93EC0181E00D
:100B6000888F9B8D8C8D98131AC0E889F9898081B4
:100B700085FF15C09FB7F894EE89FF896083E889E7
:100B8000F98980818370806480839FBF81E090E0D9
:100B9000DF91CF911F910F91FF90EF900895F62E66
:100BA0000B8D10E00F5F1F4F0F731127E02E8C8D00
:100BB0008E110CC00FB607FCFACFE889F989808145
:100BC00085FFF5CFCE010E948605F1CFEB8DEC0FAE
:100BD000FD2FF11DE35AFF4FF0829FB7F8940B8F62
:100BE000EA89FB8980818062CFCFCF93DF93EC01CC
:100BF000888D8823B9F0AA89BB89E889F9898C9105
:100C000085FD03C0808186FD0DC00FB607FCF7CFC0
:100C10008C9185FFF2CF808185FFEDCFCE010E94C0
:100C20008605E9CFDF91CF9108950F931F93CF935E
:100C3000DF931F92CDB7DEB78C01698360E0FC01C2
:100C4000868D0E94110341E050E0BE016F5F7F4F2F
:100C5000F801838D948D0E945D040F90DF91CF91F8
:100C60001F910F910895CF93C82F87FDCFE7C093B1
:100C70004D0561E28EE295E00E9415066C2F6068DA
:100C80008EE295E00E94150660E28EE295E0CF913B
:100C90000C941506CF9380914B0587FD13C061E03E
:100CA0000E945D0360E080914B050E94110361E0AA
:100CB00070E080E090E00E94D60461E080914B05F6
:100CC0000E941103C0914E05C83008F0C7E0C093E0
:100CD0004E0561E28EE295E00E9415066C2F606180
:100CE0008EE295E00E94150660E28EE295E00E9499
:100CF000150680914D050E94330660E28EE295E074
:100D00000E9415066CE08EE295E0CF910C941506DA
:100D1000FF920F931F93CF93DF9390914F059923E9
:100D200039F0809150058F5F8917E8F58093500561
:100D3000D0915305D695D695D69584E5D89F800158
:100D40001124809154058695869586958D1780F19E
:100D50006D2F60648EE295E00E941506C0915105EA
:100D6000F09052056C2F60688EE295E00E941506A7
:100D700061E080914C050E9411034F2D50E06C2FD3
:100D800070E0461B570B4F5F5F4F600F711F6F5F27
:100D90007E4F8091490590914A050E945D04DF5F76
:100DA0000C5A1F4FCECF109250050E944A06C0CF5A
:100DB00060E48EE295E00E94150683E5809351057C
:100DC000109252058FE28093530510925405DF91E3
:100DD000CF911F910F91FF9008951F93CF93DF93B1
:100DE000EC01162F60E20E9415066CE011116DE017
:100DF000CE01DF91CF911F910C941506FC0177FD78
:100E000055C080859185681779070CF04FC057FD54
:100E10004DC082859385481759070CF047C08689D5
:100E2000823009F444C0833009F44EC0813031F47B
:100E30008FE290E0861B970BBA01AC01842FA62F9E
:100E400093A1691708F4962F93A394A19A1708F415
:100E50009A2F94A395A1891708F4982F95A396A18A
:100E6000981708F4982F96A3CA0157FD0796E3E058
:100E700095958795EA95E1F7A4E5A89FF001A99FCC
:100E8000F00D1124E60FF71FEF5FFE4FCA0168E077
:100E900070E00E941A1A41E050E001C0440F8A95A8
:100EA000EAF78081232BB9F0842B8083089583E5B2
:100EB00090E0DC01A61BB70BBD018FE290E0DC01E6
:100EC000A41BB50BAD01BACF83E590E0841B950B55
:100ED000AB01BC01B3CF40958423E7CF2091190427
:100EE000260F3327331F21323105ECF420913D04C6
:100EF000FC0190E080E0243069F082E00895A09148
:100F000019042191AC0147505C4FA40FB52FB11DBE
:100F10002C930196861798F380911904680F6093BB
:100F2000190480E0089581E0089508958FEF9FEF00
:100F300008958FEF9FEF08958091F20390E09195CF
:100F4000819591090895CF93DF93CB01EA01642F36
:100F50000E946E07CE01DF91CF910895CF93DF936A
:100F60001F92CDB7DEB7698361E0CE0101960E9482
:100F70006E0781E090E00F90DF91CF910895089582
:100F8000FC016370668B8481958126813781613095
:100F900039F0633029F0918780873387228708955D
:100FA000318720879387828708952F923F924F92AF
:100FB0005F926F927F928F929F92AF92BF92CF92E9
:100FC000DF92EF92FF920F931F93CF93DF93CDB7F2
:100FD000DEB76A970FB6F894DEBF0FBECDBF9A8F0B
:100FE000898F7A8369834A01D22E18870F8337014C
:100FF000BC2CDC0159962D913C915A972115310555
:1010000009F015C118968D919C9119976817790769
:101010000CF0D7C11A968D919C91481759070CF086
:10102000D0C14C2C512CB6E0CB9E600D711D11240B
:101030007C876B87161617060CF0C3C1EA2DF0E00B
:10104000FA87E98793E0EE0FFF1F9A95E1F7F88B97
:10105000EF87CF01840F951F181619060CF0B1C148
:10106000A98DBA8D58968C91811104C0BFEABD1527
:1010700008F4D394A98DBA8DED91FC911197028457
:10108000F385E02DCD010995B5E0DB9EC00111246B
:10109000E981FA81FC83EB83312C212C9C012859B6
:1010A0003F4F388F2F8B4A2D50E05E8B4D8BEF8951
:1010B000F88DE20DF31D44919E828D82D12CC12CBE
:1010C00069817A81620D731D7A8B698B842F90E020
:1010D0009C8B8B8BE98DFA8DA081B18140FF82C002
:1010E000F1E0BF126FC0AF126DC01C96ED91FC9184
:1010F0002F813885A4014C0D5D1D69897A89898D00
:101100009A8D0995EB89FC89F595E7954E2F5FEF50
:10111000C51AD50A6D817E818D899E89680F791FD8
:101120007E836D8398E0C916D10481F6AFEF2A1A49
:101130003A0AEB81FC81E40DF51DFC83EB83F5E0BD
:101140002F16310409F0B3CF2F81388526153705C6
:10115000B9F0A98DBA8DED91FC91B1E0BB1257C0E9
:10116000AB1255C069817A816B5F7F4F0088F1892E
:10117000E02D830128E030E0A401898D9A8D099546
:10118000A98DBA8DED91FC9111970688F789E02D14
:10119000CD016A960FB6F894DEBF0FBECDBFDF91CA
:1011A000CF911F910F91FF90EF90DF90CF90BF9064
:1011B000AF909F908F907F906F905F904F903F90F7
:1011C0002F9009941E96ED91FC91EF80F88409858B
:1011D0001A8592014D815E816B817C81898D9A8D0A
:1011E000099590CF2F8138852615370509F48ACFC8
:1011F00031E0B31207C0A31205C01C96ED91FC911B
:10120000930178CF1E96ED91FC917301E0CF6B8531
:101210007C85641975090684F785E02D73010F85B7
:1012200018899201A401898D9A8D0995A9CFF90198
:1012300034969491329745915491D91AB7E0DB9E38
:10124000400D511D1124F901259134913C8B2B8BBC
:10125000FA0125903490FA013296749031963491C7
:10126000398B329664903196449041E04C1518F0D9
:101270004A1508F07FC0662D062C000C770B7C8386
:101280006B83842D042C000C990B9E838D83A98D78
:10129000BA8DED91FC9111970284F385E02DCD017B
:1012A0000995512CD12CC12CEA2DF0E0FA87E98761
:1012B0002B2D30E03C872B87A401440D511D47FCAA
:1012C0005A95588F4F8B69817A81660D711D67FC25
:1012D0007A957E876D877989C71608F051CF2C2DB6
:1012E00030E04D815E81420F531FA985BA854A9F28
:1012F000C0014B9F900D5A9F900D1124FC01E80DE9
:10130000F91DF88BEF87852D612C4F89588D420F81
:10131000531F5E8B4D8B671408F050C044244394D8
:10132000480E877041F4C1010196EB89FC89E20DFA
:10133000F31DD4901C01D7FE19C0A98DBA8DED9173
:10134000FC91662D70E0B1E0BB1219C0AB1217C062
:101350002D853E85620F731F0484F585E02D2F8156
:1013600038854D895E89898D9A8D0995DD0C639448
:10137000842DD1CF1E821D821C821B8288CF4B817F
:101380005C81640F751FAB85BC856A9FC0016B9F34
:10139000900D7A9F900D112469817A81680F791FD1
:1013A0000684F785E02DEF80F88409851A859D0174
:1013B0004F855889898D9A8D0995D8CF570CC3943C
:1013C0008ACF6A960FB6F894DEBF0FBECDBFDF910D
:1013D000CF911F910F91FF90EF90DF90CF90BF9032
:1013E000AF909F908F907F906F905F904F903F90C5
:1013F0002F9008958F929F92AF92CF92EF92FF928B
:101400000F931F93CF93DF93EC01262F898D9A8D35
:10141000009709F051C06A30D1F41D861C868D8971
:1014200048E0849F900111248E859F85820F931F31
:101430009F878E8781E090E0DF91CF911F910F9180
:10144000FF90EF90CF90AF909F908F9008956D3068
:1014500089F3CC88AD888F898823C1F08C859D85E0
:1014600036E0C39E800D911D11244885598548178B
:10147000590764F44E855F851D861C8638E0A39E5F
:10148000C0011124840F951F9F878E87EA88FB88EF
:10149000088919894E855F856C857D85CE010E94FE
:1014A000D5072C898C859D8546E0249F800D911D54
:1014B00011249D878C87BECF6A3069F41D861C86F7
:1014C000FC013896E4912D898E859F85E29F800DE1
:1014D000911D1124ADCF6D3009F4ACCFFC013496D1
:1014E0003491631708F4A6CF3296E491E61708F416
:1014F000A1CFFC01329685909490462F431B342F48
:1015000047E0349F800C911C1124F40132963491F1
:101510003196E4913323A9F1EE2399F1CC88F401BB
:101520003596E491AD884F89442301F10E2E000CCD
:10153000FF0BE30FF11DCE9EA001CF9E500D112495
:101540006C857D85460F571F6885798564177507FB
:101550006CF44E855F851D861C86FC013896E491EF
:10156000AE9E400D511D11245F874E87EA88FB888F
:10157000088919894E855F856C857D85CE010E941D
:10158000D507F4013496E4912C898C859D85E29FE2
:10159000800D911D11248DCF6F927F928F929F921B
:1015A000AF92BF92CF92DF92EF92FF920F931F9371
:1015B000CF93DF93EC016B015A0139014801E881B7
:1015C000F9810284F385E02D0995E881F98102888B
:1015D000F389E02D87019301A501B601CE0109959C
:1015E000A501480D591D41505109E881F981028832
:1015F000F389E02D9301B601CE010995E881F981C7
:101600000088F189E02D9401A501B601CE0109956C
:10161000C60CD71CB60161507109E881F9810088B8
:10162000F189E02D9401A501CE010995E881F981A8
:101630000688F789E02DCE01DF91CF911F910F91A0
:10164000FF90EF90DF90CF90BF90AF909F908F90E2
:101650007F906F9009946F927F928F929F92AF923A
:10166000BF92CF92DF92EF92FF920F931F93CF938F
:10167000DF935C01EB016A01490138018701DC015C
:10168000ED91FC916217730719F5641675062CF03D
:10169000962D872D3A01C92ED82E96012619370985
:1016A0002F5F3F4F048CF58DE02DA301BE01C501D6
:1016B0000995DF91CF911F910F91FF90EF90DF90EF
:1016C000CF90BF90AF909F908F907F906F90089534
:1016D0004615570591F42617370724F0892D4B013D
:1016E000C22FD82F9E01281939092F5F3F4F068C32
:1016F000F78DE02DA601B401DACF0284F385E02D49
:101700000995D501ED91FC910488F589E02D8301BF
:101710009401A601BE01C5010995D501ED91FC9189
:101720000688F789E02DC501DF91CF911F910F91B8
:10173000FF90EF90DF90CF90BF90AF909F908F90F1
:101740007F906F900994EF92FF920F931F93DC01AB
:101750001A960D911C911B9718962D913C911997F3
:10176000ED91FC9100A0F1A1E02D7B0150E040E063
:1017700070E060E009951F910F91FF90EF90089540
:101780004F925F926F927F928F929F92AF92BF9291
:10179000CF92DF92EF92FF920F931F93CF93DF933D
:1017A0006C012B015A0139014801DC01ED91FC91DA
:1017B0000284F385E02D0995E201640C751CD601C5
:1017C000ED91FC91C615D7055CF40088F189E02DF8
:1017D00087019401A501BE01C60109952196EFCFAD
:1017E0000688F789E02DC601DF91CF911F910F91F7
:1017F000FF90EF90DF90CF90BF90AF909F908F9031
:101800007F906F905F904F9009948F929F92AF92CC
:10181000BF92CF92DF92EF92FF920F931F93CF93DD
:10182000DF93EC015B014A016901E881F9810284DF
:10183000F385E02D099595012C0D3D1D21503109B1
:10184000E881F9810488F589E02D78018401A401FB
:10185000B501CE010995E881F9810688F789E02D67
:10186000CE01DF91CF911F910F91FF90EF90DF900C
:10187000CF90BF90AF909F908F9009948F929F923E
:10188000AF92BF92CF92DF92EF92FF920F931F938E
:10189000CF93DF93EC015B014A0169017801E88194
:1018A000F9810284F385E02D0995C80CD91C8601C5
:1018B00001501109E881F9810488F589E02D95012D
:1018C000A401B501CE010995E881F9810688F7895F
:1018D000E02DCE01DF91CF911F910F91FF90EF90FE
:1018E000DF90CF90BF90AF909F908F900994EF9230
:1018F000FF920F931F93DC01ED91FC9100A0F1A1E9
:10190000E02D09951F910F91FF90EF9008950F938F
:101910001F93DC01ED91FC91068CF78DE02D09956C
:101920001F910F9108950F931F93DC01ED91FC918E
:10193000048CF58DE02D09951F910F910895DC0120
:10194000ED91FC910084F185E02D09942F923F9256
:101950004F925F926F927F928F929F92AF92BF92BF
:10196000CF92DF92EF92FF920F931F93CF93DF936B
:1019700000D000D000D0CDB7DEB73C016A013E8375
:101980002D83FC82EB825801A41AB50AB7FE03C06E
:10199000B194A194B1088D809E80861A970A97FE13
:1019A00003C09194819491088A149B045CF0902F59
:1019B000812F0D811E819D838E839C2D8D2D6B012A
:1019C000692F782F0C151D055CF09D818E817E831B
:1019D0006D83692F782F902F812F8601C92ED82EE5
:1019E0001601201A310A2B012D813E81421A530A19
:1019F00057FE03C0519441945108710137FE03C052
:101A00003FEFE31AF30AF594E7948D819E818617E0
:101A100097075CF5A1E0B0E0BA83A983C016D106B0
:101A20004CF1D301ED91FC910484F585E02D2B81DF
:101A30003C81A8016D817E818A149B041CF04D813C
:101A40005E81B801C3010995E418F508F7FE0AC0E4
:101A50002D813E8189819A81280F391F3E832D83F4
:101A6000E20CF31C0F5F1F4FD9CF2FEF3FEF3A83EC
:101A70002983D4CF26960FB6F894DEBF0FBECDBF14
:101A8000DF91CF911F910F91FF90EF90DF90CF905A
:101A9000BF90AF909F908F907F906F905F904F908E
:101AA0003F902F900895089590E080E00895E1E040
:101AB000F1E088EF91E0DF019C011D922150304060
:101AC000E1F71092510580915205833508F483E5C2
:101AD0008093520510925305809154058F3208F47B
:101AE0008FE28093540510923B0510923A051092B4
:101AF0003D0510923C0508950E948F1BFB0101904B
:101B00000020E9F73197AF01461B570BDC01ED913F
:101B1000FC910280F381E02D09948F929F92AF9205
:101B2000BF92EF92FF920F931F93CF93DF93CDB7A6
:101B3000DEB7A1970FB6F894DEBF0FBECDBF7C0114
:101B4000FA01CB0119A2223008F42AE08E010F5DC0
:101B50001F4F822E912CB12CA12CBF01A501940105
:101B60000E942E1AF901CA016A300CF5605DD80195
:101B70006E938D01232B242B252B79F790E080E0A9
:101B8000109721F0BD01C7010E947E0DA1960FB6EE
:101B9000F894DEBF0FBECDBFDF91CF911F910F91A3
:101BA000FF90EF90BF90AF909F908F900895695CE9
:101BB000DECFBC018EE295E00C947E0D0F931F9357
:101BC000CF93DF93EC010E947E0D8C016DE373E0F7
:101BD000CE010E947E0D800F911FDF91CF911F914A
:101BE0000F9108952F923F924F925F926F927F9242
:101BF0008F929F92AF92BF92CF92DF92EF92FF921D
:101C00001F93CF93DF93EC016A017B01722EAB012E
:101C10009601CB01B6010E94151A60E473E08111B0
:101C200026C046015701E894B7F82FEF3FEF4FE782
:101C30005FE7C501B4010E94151A81110CC02FEF96
:101C40003FEF4FE75FE7C501B4010E944B1864E422
:101C500073E0181664F02FEF3FEF4FE75FE4C70122
:101C6000B6010E94A3191816B4F468E473E0CE011B
:101C7000DF91CF911F91FF90EF90DF90CF90BF90B9
:101C8000AF909F908F907F906F905F904F903F901C
:101C90002F900C947E0D2FEF3FEF4FE75FECC701C5
:101CA000B6010E944B1887FDE0CF20E030E0A9018B
:101CB000C701B6010E944B18312C212C87FF0DC0A3
:101CC000E881F9810190F081E02D6DE2CE01099566
:101CD0001C01F7FAF094F7F8F09410E060E070E07F
:101CE00080E09FE3711641F020E030E040E251E4F3
:101CF0000E9450181F5FF6CFA70196010E94DF17C0
:101D00002B013C010E94C2184B015C012AE0BC017E
:101D1000A401CE010E948D0D7C01E20CF31C112365
:101D2000E1F1C501B4010E94F1189B01AC01C301AE
:101D3000B2010E94DE174B015C01E881F98101903C
:101D4000F081E02D6EE2CE010995E80EF91E1150EA
:101D500020F120E030E040E251E4C501B4010E94EE
:101D6000A8192B013C010E94C2184B01B12CA12CD7
:101D70002AE0B501A401CE010E948D0DE80EF91EE6
:101D8000C501B4010E94F1189B01AC01C301B2016D
:101D90000E94DE174B015C01DACFC701DF91CF91C2
:101DA0001F91FF90EF90DF90CF90BF90AF909F90EA
:101DB0008F907F906F905F904F903F902F900895FD
:101DC000CF93DF93AB01BC0122E081E994E00E9454
:101DD000F20DEC016DE373E081E994E00E947E0D69
:101DE0008C0F9D1FDF91CF9108951F93CF93DF93A9
:101DF00085ED8093BC008091F5039091F603A0914E
:101E0000F703B091F8030796A11DB11D23E0B69525
:101E1000A795979587952A95D1F72091BC0024FD29
:101E200003C010923D0452C04091F5035091F60357
:101E30006091F7037091F803452B462B472B69F30C
:101E40000097A105B10541F02AE22A95F1F700C0FB
:101E50000197A109B109E1CF8091F403C1E0C093DA
:101E6000F303882399F1D091B8001091BA008091C2
:101E7000BC008A7B8093BC0060E082E10E94110379
:101E800060E083E10E94110310923D04C0933F047F
:101E900010923E0461E082E10E94110361E083E15F
:101EA0000E9411038091B9008E7F8093B9008091C8
:101EB000B9008D7F8093B90088E48093B80085E4F1
:101EC0008093BC001093BA00D093B800DF91CF91FB
:101ED0001F9108951F920F920FB60F9211242F9306
:101EE0003F938F939F93AF93BF9380918904909179
:101EF0008A04A0918B04B0918C043091880423E073
:101F0000230F2D3758F50196A11DB11D209388048C
:101F10008093890490938A04A0938B04B0938C04DB
:101F200080918D0490918E04A0918F04B0919004C3
:101F30000196A11DB11D80938D0490938E04A093F2
:101F40008F04B0939004BF91AF919F918F913F9177
:101F50002F910F900FBE0F901F90189526E8230F1A
:101F60000296A11DB11DD2CF1F920F920FB60F92F4
:101F700011242F933F934F935F936F937F938F938E
:101F80009F93AF93BF93EF93FF9381E994E00E94F7
:101F90008605FF91EF91BF91AF919F918F917F91B6
:101FA0006F915F914F913F912F910F900FBE0F90C6
:101FB0001F9018951F920F920FB60F9211242F9316
:101FC0008F939F93EF93FF93E091A104F091A2046C
:101FD0008081E091A704F091A80482FD1BC090814C
:101FE0008091AA048F5F8F732091AB04821741F018
:101FF000E091AA04F0E0EF56FB4F958F8093AA047E
:10200000FF91EF919F918F912F910F900FBE0F90A5
:102010001F9018958081F4CF1F920F920FB60F92E8
:1020200011242F933F934F935F936F937F938F93DD
:102030009F93AF93BF93EF93FF938091B900887FF5
:10204000803609F44AC0F0F5883209F4A5C018F5C5
:10205000803109F499C0B8F4882309F4F5C08830B8
:1020600009F492C0FF91EF91BF91AF919F918F9131
:102070007F916F915F914F913F912F910F900FBE84
:102080000F901F901895883109F486C0803251F75F
:1020900080933C0414C0803409F49BC040F4803326
:1020A000B9F38833F9F680933C0485ECAEC08035F3
:1020B00009F483C0883509F494C0883499F60E94E5
:1020C000F50ED0CF883909F48AC038F5883729F061
:1020D00050F4883611F0803729F683E080933D0470
:1020E00010923B0455C0883809F479C0803919F042
:1020F000803809F0B7CF80913B04803208F06FC080
:10210000E0913B0481E08E0F80933B048091BB0003
:10211000F0E0E55EFB4F80833BC0803B39F0D0F4BC
:10212000803A09F477C0883A09F09CCF84E0809324
:102130003D0410921A0410921904F0E0E0E00995B1
:102140008091190481110FC081E0809319041092CD
:10215000F90309C0803C09F4A8CF883C09F4A5CF55
:10216000883B09F07FCFE0911A0481E08E0F8093C5
:102170001A04F0E0E750FC4F80818093BB009091FF
:102180001A048091190429C0809162048093BB00D5
:1021900085EC8093BC0066CF9091610480916004CF
:1021A000981758F5E091610481E08E0F80936104E7
:1021B000F0E0E05CFB4F8081E9CFE091610481E0D9
:1021C0008E0F809361048091BB00F0E0E05CFB4FD8
:1021D000808390916104809160049817C8F285E82B
:1021E000D8CFE091610481E08E0F809361048091EB
:1021F000BB00F0E0E05CFB4F808380913F048111E5
:102200005ECF81E080933E0484EA8093BC0010920C
:102210003D0428CF85EC8093BC0010923D04809152
:102220003B04803230F4E0913B04F0E0E55EFB4F8C
:10223000108260913B0470E08BE194E0F0E0E0E01C
:10224000099510923B040ECF10923C0438CFCF93E7
:10225000DF93E1E9F4E01382128288EE93E0A0E0DC
:10226000B0E084839583A683B78383E093E0918372
:10227000808385EC90E09587848784EC90E0978755
:10228000868780EC90E0918B808B81EC90E0938B43
:10229000828B82EC90E0958B848B86EC90E0978B20
:1022A000868B118E128E138E148ECEE2D5E01B8299
:1022B0001A8224E530E03D832C8380E390E09F8305
:1022C0008E83398728879B878A871E8A1D861C866E
:1022D0001F861E8681E08D8B8C8B2FEF3FEF3B8B13
:1022E0002A8B398B288B8F8B188E1A8E198E85E14D
:1022F00093E0998388838CE190E00E946A1ADC0164
:1023000011961C921E9213961C921E92129784E0B4
:102310001B968C931B9787E01C968C931C978FEFD2
:102320001E968C931E9786E01D968C931D97E8EA67
:10233000F5E0E491F0E0EE0FFF1FE656FA4F8591CD
:10234000949156969C938E935597EAE8F5E0E49124
:102350005A96EC935A97EAEAF5E0E491F0E0EE0F32
:10236000FF1FE656FA4F8591949150969C938E9359
:102370001F97ECE8F5E0E4915796EC935797EBEA5A
:10238000F5E0E491F0E0EE0FFF1FE656FA4F85917D
:10239000949152969C938E935197EDE8F5E0E491D9
:1023A0005996EC93599740E059E06DE370E014962C
:1023B0004D935D936D937C93179781E090E0199610
:1023C0009C938E9318971A961C921A975B961C9260
:1023D0005B97BC8FAB8F85E08E8F83E08D8FDF9115
:1023E000CF910895CF93DF93CDB7DEB72D970FB67A
:1023F000F894DEBF0FBECDBF789484B5826084BDF3
:1024000084B5816084BD85B5826085BD85B58160F8
:1024100085BD80916E00816080936E001092810076
:102420008091810082608093810080918100816031
:1024300080938100809180008160809380008091F2
:10244000B10084608093B1008091B000816080937E
:10245000B00080917A00846080937A0080917A0045
:10246000826080937A0080917A00816080937A0004
:1024700080917A00806880937A001092C100E09188
:10248000A104F091A20482E08083E0919D04F09188
:102490009E041082E0919F04F091A0048FEC808351
:1024A0001092A904E091A504F091A60486E080832F
:1024B000E091A304F091A404808180618083E09185
:1024C000A304F091A404808188608083E091A30438
:1024D000F091A404808180688083E091A304F0914E
:1024E000A40480818F7D808361E088E00E945D0389
:1024F00061E089E00E945D0361E08AE00E945D0383
:1025000061E08BE00E945D032091490530914A050E
:102510003A832983D9011B968C918F3F49F061E062
:102520000E945D0361E0E981FA8183850E941103C5
:10253000A981BA818D919C91892B09F40CC11FB797
:10254000F89480916304811127C0EEEAF5E084914C
:10255000E0E9F5E09491E82FF0E0EE0FFF1FE85975
:10256000FA4FA591B491EC91E92321F461E08AE05E
:102570000E94110361E08AE00E945D038CB58061D6
:102580008CBD8CB580648CBD61E08DE00E945D03E4
:1025900061E08BE00E945D03809163048F5F809314
:1025A00063041FBF81E0E981FA81838F61E080913C
:1025B0004C050E945D0380914B0587FD03C061E0DF
:1025C0000E945D0384E080934E0588E280934D0570
:1025D00010924F05109250050E944A061092510524
:1025E00080915205833508F483E58093520510925B
:1025F0005305809154058F3208F48FE2809354057F
:102600000E9488068BE40E9433060E94880668EECA
:1026100073E080E090E00E94D6040E94570D21E014
:1026200030E0309341052093400530933F052093DF
:102630003E0510923B0510923A0530933D052093DC
:102640003C0511E010934205109343056CE473E0E0
:102650008EE295E00E94DE0D109342051093430533
:1026600081E090E0909341058093400590933F0571
:1026700080933E0586E190E090933B0580933A0578
:1026800084E190E090933D0580933C056AE573E01A
:102690008EE295E00E94DE0D0E94880660ED77E0F4
:1026A00080E090E00E94D6040E94570D9BE1292E05
:1026B00093E0392E82E10E948E03BC01990F880BB2
:1026C000990B0E94F318609384047093850480939F
:1026D00086049093870483E10E948E03BC01990FC6
:1026E000880B990B0E94F318609380047093810407
:1026F000809382049093830420E030E040E450E42F
:102700000E94A31918160CF057C08091000188236D
:1027100009F452C063E673E081E994E00E94DE0DA3
:102720006DE673E081E994E00E94DE0D67E773E0F7
:1027300081E994E00E94DE0D61E873E081E994E0B4
:102740000E94DE0D6BE873E081E994E00E94DE0DEB
:1027500010920001DACF61E0E981FA8184850E945C
:102760005D03A981BA811A968C911A978B7FF9F42F
:1027700060E01C968C910E941103A981BA811D967C
:102780008C918F3F49F061E00E945D0361E0E98137
:10279000FA8185850E941103A981BA811E968C91C8
:1027A0008F3F09F4FFCE60E00E945D03FBCE61E045
:1027B000E981FA818485DFCF809180049091810442
:1027C000A0918204B09183048D839E83AF83B887E8
:1027D00020E030E040E450E460918404709185048E
:1027E00080918604909187040E94A31918160CF01A
:1027F000ECC104E610E0E12CF12C198619828EE080
:102800000E948E03BC01990F880B990B0E94F3184C
:102810005B016C019701498559810E94A319181623
:102820001CF47501C986D982C1010197F1F70150E5
:10283000110929F720E030E040EA50E4B70189852A
:1028400099810E94A81920E030EC4FE754E40E94DF
:1028500050182AE939E949E151E40E94A81920E019
:1028600030E040EC51E40E94DE1723EF34E045EB0A
:102870005FE30E9450182B013C01A4E6B0E0BA834C
:10288000A983E12CF12C00E010E08FE00E948E0380
:10289000BC01990F880B990B0E94F3185B016C0126
:1028A0009701A8010E94A319181614F47501860156
:1028B000C1010197F1F7E981FA813197FA83E98340
:1028C000EF2B19F720E030E040EA50E4B701C801EF
:1028D0000E94A81920E030EC4FE754E40E94501801
:1028E0002AE939E949E151E40E94A81920E030E0E1
:1028F00040EC51E40E94DE1723EF34E045EB5FE348
:102900000E94501869837A838B839C8324E630E08D
:102910003C872B87E12CF12C912C812C80E10E94AB
:102920008E03BC01990F880B990B0E94F3185B0171
:102930006C019701492D582D0E94A31918161CF4FB
:1029400075019C2C8D2CC1010197F1F78B859C851D
:1029500001979C878B87892B09F720E030E040EABC
:1029600050E4B701892D982D0E94A81920E030EC81
:102970004FE754E40E9450182AE939E949E151E44B
:102980000E94A81920E030E040EC51E40E94DE17DC
:1029900023EF34E045EB5FE30E9450184B015C01EC
:1029A00084E6E82EF12C1B861D8610E000E081E114
:1029B0000E948E03BC01990F880B990B0E94F3189B
:1029C000D62E79878A87C92E2B853D85412F502F9A
:1029D0000E94A31918162CF4DB8699859D871A8509
:1029E0000C2DC1010197F1F7A1E0EA1AF108F9F6FF
:1029F00020E030E040EA50E46B857D85812F902F08
:102A00000E94A81920E030EC4FE754E40E945018CF
:102A10002AE939E949E151E40E94A81920E030E0AF
:102A200040EC51E40E94DE1723EF34E045EB5FE316
:102A30000E9450186B017C0120E030E040E450E43B
:102A40006D817E818F8198850E94A3191816C4F428
:102A5000C301B2010E94E00E69817A818B819C8161
:102A60000E94E00EC501B4010E94E00EC701B6014C
:102A70000E94E00E67E573E081E994E00E94DE0DBC
:102A800081E993E00E94D90D81EA93E00E94D90D7B
:102A900080EB93E00E94D90D22E0B301A2018EE207
:102AA00095E00E94F20D85EB93E00E94D90D8EE334
:102AB00093E00E94D90D8BEB93E00E94D90D22E0A8
:102AC00049815A816B817C818EE295E00E94F20DF2
:102AD00085EB93E00E94D90D8EE393E00E94D90D1F
:102AE00080EC93E00E94D90D22E0B501A4018EE2B2
:102AF00095E00E94F20D85EB93E00E94D90D8EE3E4
:102B000093E00E94D90D85EC93E00E94D90D22E05C
:102B1000B701A6018EE295E00E94F20D85EB93E0ED
:102B20000E94D90D8EE393E00E94D90D0E94880681
:102B30000E94570D21E73DE342E651E4C301B20193
:102B40000E94A31961E018160CF060E088E00E9472
:102B5000110321E73DE342E651E469817A818B81EB
:102B60009C810E94A31961E018160CF060E089E0D6
:102B70000E94110321E73DE342E651E4C501B4019F
:102B80000E94A31961E018160CF060E08AE00E9430
:102B9000110321E73DE342E651E4C701B6010E947B
:102BA000A31918160CF008C261E08BE00E94110313
:102BB000A0E0B0E0AB2B09F47DCD0E947205882324
:102BC00009F478CD0E94000075CD8EE00E948E033E
:102BD000BC01990F880B990B0E94F3186B017C01C3
:102BE000C0927C04D0927D04E0927E04F0927F0437
:102BF0008FE00E948E03BC01990F880B990B0E94F5
:102C0000F3182B013C0140927804509279046092B1
:102C10007A0470927B0480E10E948E03BC01990FBC
:102C2000880B990B0E94F3184B015C01809274048D
:102C300090927504A0927604B092770481E10E948C
:102C40008E039A83898320E030E040EA50E4C70194
:102C5000B6010E94A81920E030EC4FE754E40E942E
:102C600050182AE939E949E151E40E94A81920E005
:102C700030E040EC51E40E94DE176B017C01C09211
:102C80007004D0927104E0927204F092730420E018
:102C900030E040EA50E4C301B2010E94A81920E0EC
:102CA00030EC4FE754E40E9450182AE939E949E131
:102CB00051E40E94A81920E030E040EC51E40E9469
:102CC000DE1760936C0470936D0480936E04909390
:102CD0006F0420E030E040EA50E4C501B4010E94F6
:102CE000A81920E030EC4FE754E40E9450182AE97C
:102CF00039E949E151E40E94A81920E030E040ECB4
:102D000051E40E94DE176093680470936904809315
:102D10006A0490936B04E981FA81BF01FF0F880B6D
:102D2000990B0E94F31820E030E040EA50E40E9442
:102D3000A81920E030EC4FE754E40E9450182AE92B
:102D400039E949E151E40E94A81920E030E040EC63
:102D500051E40E94DE1760936404709365048093CD
:102D600066049093670420E030E040E450E46D8115
:102D70007E818F8198850E94A319181644F5C7019A
:102D8000B6010E94E00E60916C0470916D04809118
:102D90006E0490916F040E94E00E6091680470913F
:102DA000690480916A0490916B040E94E00E609126
:102DB00064047091650480916604909167040E9498
:102DC000E00E6EE873E081E994E00E94DE0D8AEC8B
:102DD00093E00E94D90D81EA93E00E94D90D8AED1B
:102DE00093E00E94D90D409170045091710460915C
:102DF00072047091730422E08EE295E00E94F20D5D
:102E00008FED93E00E94D90D8EE393E00E94D90DDF
:102E100082EE93E00E94D90D40916C0450916D04B4
:102E200060916E0470916F0422E08EE295E00E9442
:102E3000F20D8FED93E00E94D90D8EE393E00E9496
:102E4000D90D87EE93E00E94D90D4091680450910E
:102E5000690460916A0470916B0422E08EE295E04F
:102E60000E94F20D8FED93E00E94D90D8EE393E066
:102E70000E94D90D8CEE93E00E94D90D409164041C
:102E800050916504609166047091670422E08EE2BF
:102E900095E00E94F20D8FED93E00E94D90D8EE334
:102EA00093E00E94D90D0E9488060E94570D8091E0
:102EB000640490916504A0916604B09167048983CD
:102EC0009A83AB83BC83C0906804D0906904E0907F
:102ED0006A04F0906B0480906C0490906D04A09054
:102EE0006E04B0906F044090700450907104609034
:102EF00072047090730420E030E040EA51E4C301B2
:102F0000B2010E94A319181654F020E030E040EA04
:102F100051ECC301B2010E944B1860E087FD61E0F3
:102F200088E00E94110320E030E040EA51E4C5014E
:102F3000B4010E94A319181654F020E030E040EAD2
:102F400051ECC501B4010E944B1860E087FD61E0BF
:102F500089E00E94110320E030E040EA51E4C7011B
:102F6000B6010E94A319181654F020E030E040EAA0
:102F700051ECC701B6010E944B1860E087FD61E08B
:102F80008AE00E94110320E030E040EA51E46981C8
:102F90007A818B819C810E94A31918160CF404CEAF
:102FA00020E030E040EA51EC69817A818B819C819C
:102FB0000E944B1887FDF8CD60E0F7CD5058BB2735
:102FC000AA270E94F6170C9469190E945B1938F021
:102FD0000E94621920F039F49F3F19F426F40C94F2
:102FE00058190EF4E095E7FB0C945219E92F0E9452
:102FF0007A1958F3BA17620773078407950720F008
:1030000079F4A6F50C949C190EF4E0950B2EBA2FCA
:10301000A02D0B01B90190010C01CA01A0011124DE
:10302000FF27591B99F0593F50F4503E68F11A168A
:10303000F040A22F232F342F4427585FF3CF46951B
:1030400037952795A795F0405395C9F77EF41F163D
:10305000BA0B620B730B840BBAF09150A1F0FF0F07
:10306000BB1F661F771F881FC2F70EC0BA0F621FF3
:10307000731F841F48F4879577956795B795F795E3
:103080009E3F08F0B0CF9395880F08F09927EE0F78
:103090009795879508950E942E1908F481E0089568
:1030A0000E9464180C9469190E94621958F00E94D9
:1030B0005B1940F029F45F3F29F00C94521951112B
:1030C0000C949D190C9458190E947A1968F399234D
:1030D000B1F3552391F3951B550BBB27AA27621714
:1030E0007307840738F09F5F5F4F220F331F441F21
:1030F000AA1FA9F335D00E2E3AF0E0E832D0915055
:103100005040E695001CCAF72BD0FE2F29D0660F41
:10311000771F881FBB1F261737074807AB07B0E884
:1031200009F0BB0B802DBF01FF2793585F4F3AF08A
:103130009E3F510578F00C9452190C949D195F3FF5
:10314000E4F3983ED4F3869577956795B795F79510
:103150009F5FC9F7880F911D9695879597F90895F8
:10316000E1E0660F771F881FBB1F62177307840794
:10317000BA0720F0621B730B840BBA0BEE1F88F7A3
:10318000E09508950E94821988F09F5798F0B92F12
:103190009927B751B0F0E1F0660F771F881F991F8C
:1031A0001AF0BA95C9F714C0B13091F00E949C1979
:1031B000B1E008950C949C19672F782F8827B85F89
:1031C00039F0B93FCCF3869577956795B395D9F7E4
:1031D0003EF490958095709561957F4F8F4F9F4FEE
:1031E0000895E89409C097FB3EF4909580957095FA
:1031F00061957F4F8F4F9F4F9923A9F0F92F96E943
:10320000BB279395F695879577956795B795F111B7
:10321000F8CFFAF4BB0F11F460FF1BC06F5F7F4F54
:103220008F4F9F4F16C0882311F096E911C0772366
:1032300021F09EE8872F762F05C0662371F096E86F
:10324000862F70E060E02AF09A95660F771F881F3E
:10325000DAF7880F9695879597F90895990F0008E2
:10326000550FAA0BE0E8FEEF16161706E807F90758
:10327000C0F012161306E407F50798F0621B730BF3
:10328000840B950B39F40A2661F0232B242B252B74
:1032900021F408950A2609F4A140A6958FEF811D17
:1032A000811D089597F99F6780E870E060E00895B8
:1032B0009FEF80EC089500240A941616170618064E
:1032C0000906089500240A9412161306140605062A
:1032D0000895092E0394000C11F4882352F0BB0FBB
:1032E00040F4BF2B11F460FF04C06F5F7F4F8F4F1E
:1032F0009F4F089557FD9058440F551F59F05F3F59
:1033000071F04795880F97FB991F61F09F3F79F007
:1033100087950895121613061406551FF2CF469589
:10332000F1DF08C0161617061806991FF1CF86950B
:103330007105610508940895E894BB2766277727EF
:10334000CB0197F908950E942E1908F48FEF089584
:103350000E94BB190C9469190E945B1938F00E94F5
:10336000621920F0952311F00C9452190C945819FD
:1033700011240C949D190E947A1970F3959FC1F342
:10338000950F50E0551F629FF001729FBB27F00D13
:10339000B11D639FAA27F00DB11DAA1F649F662768
:1033A000B00DA11D661F829F2227B00DA11D621FB7
:1033B000739FB00DA11D621F839FA00D611D221F71
:1033C000749F3327A00D611D231F849F600D211D55
:1033D000822F762F6A2F11249F5750409AF0F1F0D8
:1033E00088234AF0EE0FFF1FBB1F661F771F881F41
:1033F00091505040A9F79E3F510580F00C9452190E
:103400000C949D195F3FE4F3983ED4F3869577952D
:103410006795B795F795E7959F5FC1F7FE2B880FE6
:10342000911D9695879597F908950E942E19880BFE
:10343000990B089597FB072E16F4009407D077FD9B
:1034400009D00E94501A07FC05D03EF49095819552
:103450009F4F0895709561957F4F0895A1E21A2EB0
:10346000AA1BBB1BFD010DC0AA1FBB1FEE1FFF1F28
:10347000A217B307E407F50720F0A21BB30BE40B78
:10348000F50B661F771F881F991F1A9469F76095BF
:103490007095809590959B01AC01BD01CF01089579
:1034A000AA1BBB1B51E107C0AA1FBB1FA617B7076A
:1034B00010F0A61BB70B881F991F5A95A9F7809586
:1034C0009095BC01CD010895EE0FFF1F0590F4917A
:1034D000E02D09940F931F93CF93DF9382309105D2
:1034E00010F482E090E0E0915705F091580530E04B
:1034F00020E0B0E0A0E0309799F42115310509F4FF
:103500004AC0281B390B24303105D8F58A819B81AC
:103510006115710589F1FB0193838283FE0111C05E
:10352000408151810281138148175907E0F0481703
:10353000590799F4109761F012960C93129713960D
:103540001C933296CF01DF91CF911F910F91089577
:103550000093570510935805F4CF2115310551F00C
:103560004217530738F0A901DB019A01BD01DF01C1
:10357000F801C1CFEF01F9CF90935805809357051B
:10358000CDCFFE01E20FF31F8193919322503109B9
:1035900039832883D7CF2091550530915605232BA9
:1035A00041F42091FB023091FC02309356052093A8
:1035B00055052091F9023091FA022115310541F4A7
:1035C0002DB73EB74091FD025091FE02241B350BF2
:1035D000E0915505F0915605E217F307A0F42E1B74
:1035E0003F0B2817390778F0AC014E5F5F4F241767
:1035F000350748F04E0F5F1F509356054093550511
:10360000819391939FCFF0E0E0E09CCFCF93DF9345
:103610000097E9F0FC01329713821282A0915705BE
:10362000B0915805ED0130E020E01097A1F4208121
:103630003181820F931F209155053091560528172F
:10364000390709F061C0F0935605E0935505DF9105
:10365000CF910895EA01CE17DF07E8F54A815B8133
:103660009E0141155105B1F7E901FB83EA834991B8
:103670005991C40FD51FEC17FD0761F4808191812A
:103680000296840F951FE901998388838281938133
:103690009B838A83F0E0E0E012968D919C911397D2
:1036A0000097B9F52D913C911197CD010296820FAB
:1036B000931F20915505309156052817390739F683
:1036C000309751F51092580510925705B093560552
:1036D000A0935505BCCFD383C28340815181840F11
:1036E000951FC817D90761F44E5F5F4F8881998194
:1036F000480F591F518340838A819B819383828322
:103700002115310509F0B0CFF0935805E093570526
:103710009ECFFD01DC01C0CF13821282D7CF81E0A2
:0C37200090E0F8940C94941BF894FFCFF8
:10372C00010000000000000000000000000000008C
:10373C00000000000000000000000000000000007D
:10374C0000000000000000C0E0F0F8FCFCFEFFFCF4
:10375C00E00000000000000000000000000000007D
:10376C00000000000000000000000000000000004D
:10377C00000000000000000000000000000000003D
:10378C00000000000000F8F8F8F8F8F8F8F8F8F87D
:10379C00F8F8F0F0E0E0C080C0FCFFFFFFFF7F3FD7
:1037AC007FFFFFFFFFFF0000000000000000000093
:1037BC0000000000000000000000000000000000FD
:1037CC0000000000000000000000000000000000ED
:1037DC0000000000000000000000000F1F3F7FFFF2
:1037EC00FFFFFFFFFFFFFFE7C7C7878F9F9FFFFF0D
:1037FC00FFC1C0E0FCFFFFFFFFFFFCFCFCFCFEFE7A
:10380C00FEFCFCF8F8F0E0C0C00000000000000076
:10381C00000000000000000000000000000000009C
:10382C00000000000000000000000000000000008C
:10383C00000080C0E0F1FBFFFFFFFFFF7F1F0F0FB9
:10384C0087E7FFFFFF1F1F3FF9F8F8F8F8F8F8FDBE
:10385C00FFFFFFFFFFFFFFFFFF7F3F0F0701000090
:10386C00000000000000000000000000000000004C
:10387C00000000000000000000000000000000003C
:10388C0000000000F0FEFFFFFFFFFFFFFFFFFFFF48
:10389C00FE7E3F3F0F1FFFFFFFFCF0E0F1FFFFFF3D
:1038AC00FFFFFCF00101010101010101000000001A
:1038BC0000000000000000000000000000000000FC
:1038CC0000000000000000000000000000000000EC
:1038DC0000000000000000000303030303030303C4
:1038EC000101010100000000000000030F1F3F7FD9
:1038FC007FFFFFFFFF7F7F1F030000000000000021
:10390C0000000000000000000000000000000000AB
:10391C0000000000000000000000005905800000BD
:10392C00000000A80508053505F505660544055891
:10393C000500000000FA090805540D530DFE06950C
:10394C00079F0C770C930C870CA60C9507C007ED02
:10395C00063E0C050CC00BA30B2B0BCC0A0D0A005E
:10396C006E616E00696E66006F766600564F4C5441
:10397C00494D4554524F204143007C494E494349DF
:10398C004F7C004368616E6E656C2031004368614A
:10399C006E6E656C2032004368616E6E656C203310
:1039AC00004368616E6E656C20340041432F4443C4
:1039BC0000566F6C74696D6574726F204143200AF8
:1039CC00002D2D2D2D2D2D2D2D2D2D2D2D2D2D0075
:1039DC0076413A20002056726D730076423A2000F0
:1039EC0076433A200076443A2000566F6C74696D29
:1039FC006574726F204443200A0056413A2000201F
:103A0C00560056423A200056433A200056443A207B
:023A1C000000A8
:00000001FF
