:100000000C94DD020C9405030C9405030C94050379
:100010000C9405030C9405030C9405030C94050340
:100020000C9405030C9405030C9405030C94050330
:100030000C9405030C9405030C9405030C94050320
:100040000C94970B0C9405030C940D0A0C94E7097F
:100050000C9405030C9405030C9405030C94050300
:100060000C94120C0C94050300000008000201001F
:100070000003040700000000000000000000000072
:10008000240027002A0000000000003E5B4F5B3E7A
:100090003E6B4F6B3E1C3E7C3E1C183C7E3C181C4D
:1000A000577D571C1C5E7F5E1C00183C1800FFE744
:1000B000C3E7FF0018241800FFE7DBE7FF30483AEA
:1000C000060E2629792926407F050507407F05254C
:1000D0003F5A3CE73C5A7F3E1C1C08081C1C3E7FD4
:1000E00014227F22145F5F005F5F06097F017F009B
:1000F0006689956A606060606094A2FFA2940804BB
:100100007E040810207E201008082A1C08081C2ADB
:1001100008081E101010100C1E0C1E0C30383E3833
:1001200030060E3E0E06000000000000005F0000DA
:100130000007000700147F147F14242A7F2A12234B
:100140001308646236495620500008070300001C5B
:100150002241000041221C002A1C7F1C2A08083E64
:100160000808008070300008080808080000606077
:100170000020100804023E5149453E00427F4000E5
:1001800072494949462141494D331814127F1027BD
:10019000454545393C4A494931412111090736490C
:1001A000494936464949291E0000140000004034E0
:1001B00000000008142241141414141400412214E5
:1001C0000802015909063E415D594E7C1211127C0C
:1001D0007F494949363E414141227F4141413E7F6D
:1001E000494949417F090909013E414151737F084D
:1001F00008087F00417F41002040413F017F0814F3
:1002000022417F404040407F021C027F7F04081053
:100210007F3E4141413E7F090909063E4151215E31
:100220007F09192946264949493203017F01033FC5
:100230004040403F1F2040201F3F4038403F631454
:1002400008146303047804036159494D43007F4156
:1002500041410204081020004141417F0402010293
:1002600004404040404000030708002054547840B8
:100270007F284444383844444428384444287F384C
:100280005454541800087E090218A4A49C787F08CE
:1002900004047800447D40002040403D007F102849
:1002A000440000417F40007C047804787C0804040A
:1002B000783844444438FC1824241818242418FCA2
:1002C0007C08040408485454542404043F44243C47
:1002D0004040207C1C2040201C3C4030403C4428B6
:1002E0001028444C9090907C4464544C4400083650
:1002F00041000000770000004136080002010204BE
:10030000023C2623263C1EA1A161123A4040207ADD
:100310003854545559215555794122545478422125
:100320005554784020545579400C1E52721239555C
:100330005555593954545459395554545800004559
:100340007C410002457D420001457C407D12111236
:100350007DF0282528F07C545545002054547C54C9
:100360007C0A097F4932494949323A4444443A3285
:100370004A4848303A4141217A3A42402078009D2B
:10038000A0A07D3D4242423D3D4040403D3C24FFD7
:100390002424487E4943662B2FFC2F2BFF0929F686
:1003A00020C0887E090320545479410000447D41D7
:1003B0003048484A32384040227A007A0A0A727D30
:1003C0000D19317D2629292F28262929292630484B
:1003D0004D4020380808080808080808382F10C8B9
:1003E000ACBA2F102834FA00007B000008142A143D
:1003F0002222142A14085500550055AA55AA55AAB8
:10040000FF55FF55FF000000FF00101010FF001403
:100410001414FF001010FF00FF1010F010F014145F
:1004200014FC001414F700FF0000FF00FF1414F484
:1004300004FC141417101F10101F101F1414141F85
:1004400000101010F0000000001F101010101F10FE
:10045000101010F010000000FF10101010101010FD
:100460001010FF10000000FF140000FF00FF00004C
:100470001F10170000FC04F414141710171414F4C0
:1004800004F40000FF00F714141414141414F700FB
:10049000F7141414171410101F101F141414F4144C
:1004A0001010F010F000001F101F0000001F1400BB
:1004B0000000FC140000F010F01010FF10FF1414E6
:1004C00014FF141010101F00000000F010FFFFFFB9
:1004D000FFFFF0F0F0F0F0FFFFFF0000000000FF72
:1004E000FF0F0F0F0F0F3844443844FC4A4A4A3478
:1004F0007E02020606027E027E026355494163388F
:1005000044443C04407E201E2006027E020299A53F
:10051000E7A5991C2A492A1C4C7201724C304A4D9D
:100520004D303048784830BC625A463D3E494949D2
:10053000007E0101017E2A2A2A2A2A44445F44447B
:1005400040514A444040444A51400000FF0103E00A
:1005500080FF000008086B6B083612362436060F41
:10056000090F06000018180000001010003040FFAE
:100570000101001F01011E00191D1712003C3C3C27
:100580003C0000000000010204081020408001022D
:1005900004081020010204081020000000002500BB
:1005A00028002B00040404040404040402020202D0
:1005B0000202030303030303491711241FBECFEFF5
:1005C000D8E0DEBFCDBF14E0A0E0B1E0EEE9F7E394
:1005D00002C005900D92A430B107D9F725E0A4E040
:1005E000B4E001C01D92A737B207E1F712E0CDEDEC
:1005F000D2E004C02197FE010E94A61ACC3DD1078B
:10060000C9F70E9474110C94CD1B0C940000CF927A
:10061000DF92EF92FF920F931F93CF93DF936C01C2
:100620007A018B01C0E0D0E0CE15DF0581F0D80162
:100630006D918D01D601ED91FC910190F081E02D3D
:10064000C6010995892B11F02196EECF7E01C701D5
:10065000DF91CF911F910F91FF90EF90DF90CF909E
:100660000895FC01538D448D252F30E0842F90E0B8
:10067000821B930B541710F0CF960895019708959D
:10068000FC01918D828D981761F0828DDF01A80F9A
:10069000B11D5D968C91928D9F5F9F73928F90E0BC
:1006A00008958FEF9FEF0895FC01918D828D98172B
:1006B00031F0828DE80FF11D858D90E008958FEF68
:1006C0009FEF0895FC01918D228D892F90E0805C31
:1006D0009F4F821B91098F739927089583EA94E0B5
:1006E0000E94620321E0892B09F420E0822F089503
:1006F000FC01848DDF01A80FB11DA35ABF4F2C91BF
:10070000848D90E001968F739927848FA689B7898D
:100710002C93A089B1898C91837080648C93938D84
:10072000848D981306C00288F389E02D80818F7D27
:1007300080830895EF92FF920F931F93CF93DF93DF
:10074000EC0181E0888F9B8D8C8D981305C0E88922
:10075000F989808185FD26C0F62E0B8D10E00F5F94
:100760001F4F0F731127E02E8C8DE8120CC00FB6AF
:1007700007FCFACFE889F989808185FFF5CFCE01A2
:100780000E947803F1CF8B8DFE01E80FF11DE35A33
:10079000FF4FF0829FB7F8940B8FEA89FB89808125
:1007A00080620AC09FB7F894EE89FF896083E88968
:1007B000F98980818370806480839FBF81E090E0AD
:1007C000DF91CF911F910F91FF90EF900895CF93FC
:1007D000DF93EC01888D8823C9F0EA89FB89808149
:1007E00085FD05C0A889B9898C9186FD0FC00FB61B
:1007F00007FCF5CF808185FFF2CFA889B9898C915C
:1008000085FFEDCFCE010E947803E7CFDF91CF9136
:10081000089580E090E0892B29F00E946E038111F9
:100820000C94000008953FB7F89480917A04909159
:100830007B04A0917C04B0917D0426B5A89B05C0E3
:100840002F3F19F00196A11DB11D3FBFBA2FA92F4F
:10085000982F8827820F911DA11DB11DBC01CD01CC
:1008600042E0660F771F881F991F4A95D1F70895B8
:10087000FC01CA01D90177FD91C02085318562173D
:1008800073070CF08BC057FD89C022853385421752
:1008900053070CF083C02689223059F02330B1F081
:1008A0002130D1F42FE230E0261B370BBA01C90109
:1008B00013C023E530E0A901461B570BBA012FE214
:1008C00030E0A901481B590BCA0106C043E550E0BE
:1008D000481B590BCB01BA01382F562F43A164177F
:1008E00008F4462F43A344A1451708F4452F44A319
:1008F00045A1341708F4432F45A346A1431708F434
:10090000432F46A39C01AB2B21F197FF02C0295F27
:100910003F4F53E0359527955A95E1F744E5429FBF
:10092000F001439FF00D11246E0F7F1FFB01EF5F5D
:10093000FE4F68E070E00E945C1A21E030E0A901FF
:1009400002C0440F551F8A95E2F7CA019081892B96
:1009500024C097FF02C0295F3F4F43E0359527959C
:100960004A95E1F744E5429FF001439FF00D1124C1
:100970006E0F7F1FFB01EF5FFE4F68E070E00E948B
:100980005C1A21E030E0A90102C0440F551F8A958E
:10099000E2F7CA0180959081892380830895409170
:1009A0002B04262F30E0240F311D21323105DCF4D9
:1009B00020914F042430C9F4FC0180E090E08617B8
:1009C00058F430912B042191DC01A55FBB4FA30F9C
:1009D000B11D2C930196F3CF80912B04680F609387
:1009E0002B0480E0089581E0089582E00895089541
:1009F0008FEF9FEF08958FEF9FEF0895809104048C
:100A000090E09195819591090895CF93DF93CB0163
:100A1000EA01642F0E94CF04CE01DF91CF910895A7
:100A2000CF93DF931F92CDB7DEB7698361E0CE012C
:100A300001960E94CF0481E090E00F90DF91CF916A
:100A400008950895FC016370668B848195812681E9
:100A50003781613039F0633029F09187808733879F
:100A600022870895318720879387828708956F9220
:100A70007F928F929F92AF92BF92CF92DF92EF922E
:100A8000FF920F931F93CF93DF93EC014B015A0119
:100A900069013801E881F9810284F385E02D099527
:100AA000E881F9810288F389E02D87019601A5018B
:100AB000B401CE010995A501460D571D41505109BC
:100AC000E881F9810288F389E02D9601B401CE0115
:100AD0000995E881F9810088F189E02D9301A5014C
:100AE000B401CE010995C80CD91CB6016150710939
:100AF000E881F9810088F189E02D9301A501CE01FB
:100B00000995E881F9810688F789E02DCE01DF910A
:100B1000CF911F910F91FF90EF90DF90CF90BF90FA
:100B2000AF909F908F907F906F9009948F929F923B
:100B3000AF92BF92CF92DF92EF92FF920F931F93EB
:100B4000CF93DF934C016B015A01E901DC01ED9178
:100B5000FC916217730781F40417150724F48B2D99
:100B60005801042F182F0A191B0998012F5F3F4FB6
:100B7000048CF58DE02D12C04017510709F526179A
:100B8000370724F48D2D6901C62FD82F9E012C190B
:100B90003D092F5F3F4F068CF78DE02D8701A501A2
:100BA000B601C4010995DF91CF911F910F91FF907C
:100BB000EF90DF90CF90BF90AF909F908F9008956F
:100BC0000284F385E02D0995D401ED91FC91048810
:100BD000F589E02D9E01A501B601C4010995D40156
:100BE000ED91FC910688F789E02DC401DF91CF914A
:100BF0001F910F91FF90EF90DF90CF90BF90AF903B
:100C00009F908F900994EF92FF920F931F93DC01B6
:100C10001A960D911C911B9718962D913C9119973E
:100C2000ED91FC9100A0F1A1E02D7B0140E050E0AE
:100C300060E070E009951F910F91FF90EF9008958B
:100C40004F925F926F927F928F929F92AF92BF92DC
:100C5000CF92DF92EF92FF920F931F93CF93DF9388
:100C60006C012B015A0139014801DC01ED91FC9125
:100C70000284F385E02D0995E201640C751CD60110
:100C8000ED91FC91C615D7055CF40088F189E02D43
:100C900087019401A501BE01C60109952196EFCFF8
:100CA0000688F789E02DC601DF91CF911F910F9142
:100CB000FF90EF90DF90CF90BF90AF909F908F907C
:100CC0007F906F905F904F9009948F929F92AF9218
:100CD000BF92CF92DF92EF92FF920F931F93CF9329
:100CE000DF93EC015B014A016901E881F98102842B
:100CF000F385E02D099595012C0D3D1D21503109FD
:100D0000E881F9810488F589E02D78018401A40146
:100D1000B501CE010995E881F9810688F789E02DB2
:100D2000CE01DF91CF911F910F91FF90EF90DF9057
:100D3000CF90BF90AF909F908F9009948F929F9289
:100D4000AF92BF92CF92DF92EF92FF920F931F93D9
:100D5000CF93DF93EC015B014A0169017801E881DF
:100D6000F9810284F385E02D0995C80CD91C860110
:100D700001501109E881F9810488F589E02D950178
:100D8000A401B501CE010995E881F9810688F789AA
:100D9000E02DCE01DF91CF911F910F91FF90EF9049
:100DA000DF90CF90BF90AF909F908F900994EF927B
:100DB000FF920F931F93DC01ED91FC9100A0F1A134
:100DC000E02D09951F910F91FF90EF9008950F93DB
:100DD0001F93DC01ED91FC91068CF78DE02D0995B8
:100DE0001F910F9108950F931F93DC01ED91FC91DA
:100DF000048CF58DE02D09951F910F910895DC016C
:100E0000ED91FC910084F185E02D09942F923F92A1
:100E10004F925F926F927F928F929F92AF92BF920A
:100E2000CF92DF92EF92FF920F931F93CF93DF93B6
:100E300000D000D000D0CDB7DEB72C017E836D830B
:100E40006A015901C801FC82EB824801841A950AA3
:100E500097FE03C091948194910835012D813E81C4
:100E6000621A730A77FE03C0719461947108681462
:100E700079045CF43A2D2B2D5C01832F922F3D8158
:100E80002E81DE82CD82C32ED22EAD81BE81AA16E6
:100E9000BB065CF43C2D2D2D6C01832F922F3D81E0
:100EA0002E81BE82AD82A32EB22E85012D813E8180
:100EB000021B130B1C012C183D0837FE03C0319494
:100EC00021943108780117FF03C03FEFE31AF30ABA
:100ED000F594E794C816D9062CF08FEF9FEF9A830C
:100EE000898304C0A1E0B0E0BA83A9832D813E814B
:100EF000A216B30624F1D201ED91FC910484F5858C
:100F0000E02D2B813C816814790424F44D815E81AD
:100F1000B60103C0A6016D817E81C2010995E21868
:100F2000F308F7FE06C029813A81C20ED31EE00EF7
:100F3000F11E8D819E8101969E838D83D7CF26964B
:100F40000FB6F894DEBF0FBECDBFDF91CF911F91DA
:100F50000F91FF90EF90DF90CF90BF90AF909F9058
:100F60008F907F906F905F904F903F902F9008955B
:100F7000089580E090E008958F929F92AF92CF9273
:100F8000EF92FF920F931F93CF93DF93EC01262FE5
:100F9000898D9A8D009709F042C06A3059F41D86F8
:100FA0001C862D898E859F8538E0239F800D911D9D
:100FB000112443C06D3009F4AAC08F898823C9F079
:100FC0003C898C859D8546E0349F800D911D1124C0
:100FD000488559854817590764F41D861C863D8944
:100FE0008E859F8548E0349F800D911D11249F8739
:100FF0008E87EA88FB88088919894E855F856C850C
:101000007D85AD88CC88CE010E94400F2C898C85CF
:101010009D8536E0239F800D911D11243EC06A30CE
:1010200079F41D861C862D89FC013896E4918E8505
:101030009F852E9F800D911D11249F878E8767C0ED
:101040006D3009F464C0FC0134963491631708F4E0
:101050005EC03296E491E61708F459C0462F431B50
:10106000342FFC0132968590949047E0349F800C99
:10107000911C1124F401329634913196E49133237A
:1010800011F0E1110DC0F4013496E4912C898C85A6
:101090009D85E29F800D911D11249D878C8737C00F
:1010A000F401359644915F89552319F15C89E32F4A
:1010B000F0E0E40FF11D47FDFA955E9FB0015F9FE0
:1010C000700D11244C855D85460F571F6885798505
:1010D0006417750774F41D861C863D89FC013896DB
:1010E000E4918E859F853E9F800D911D11249F87E1
:1010F0008E87EA88FB88088919894E855F856C850B
:101100007D85AD88CC88CE010E94400FBCCF81E0A8
:1011100090E0DF91CF911F910F91FF90EF90CF90D2
:10112000AF909F908F9008956115710579F0FB0144
:1011300001900020E9F73197AF01461B570BDC0106
:10114000ED91FC910280F381E02D099480E090E024
:1011500008952F923F924F925F926F927F928F925B
:101160009F92AF92BF92CF92DF92EF92FF920F9336
:101170001F93CF93DF93CDB7DEB7A2970FB6F89446
:10118000DEBF0FBECDBF8C014A015B01D22E9A019A
:10119000AB01C501B4010E94571A882319F06FE40E
:1011A00073E027C024013501E89477F82FEF3FEF73
:1011B0004FE75FE7C301B2010E94571A81110DC0CA
:1011C0002FEF3FEF4FE75FE7C301B2010E948D1899
:1011D00018161CF463E573E00CC02FEF3FEF4FE7E8
:1011E0005FE4C501B4010E94E519181634F467E5FF
:1011F00073E0C8010E949408BDC02FEF3FEF4FE796
:101200005FECC501B4010E948D1887FDF0CF20E08E
:1012100030E0A901C501B4010E948D1887FF0FC0FD
:10122000D801ED91FC910190F081E02D6DE2C801B3
:1012300009951C01B7FAB094B7F8B09402C0212CFC
:10124000312CF12C60E070E080E09FE3DF1441F08E
:1012500020E030E040E251E40E949218F394F6CF8F
:10126000A50194010E9421184B015C010E94041900
:10127000562E672E782EC92E19A2262F372F482FCB
:10128000592F7E01B1E2EB0EF11CEAA24F2CCA01EC
:10129000B9012AE030E040E050E00E94701A605D41
:1012A000F70162937F01211531054105510579F759
:1012B000BF01C8010E9494087101E80EF91EDD20EB
:1012C00009F457C0652D762D872D9C2D0E9433196A
:1012D0009B01AC01C501B4010E9420184B015C01C7
:1012E000D801ED91FC910190F081E02D6EE2C801F2
:1012F0000995E80EF91E20E030E040E251E4C50116
:10130000B4010E94EA194B015C010E9404199B017F
:1013100040E050E019A22AA0342C562E632E742EE1
:10132000C52ECA01B9012AE030E040E050E00E9439
:10133000701A605DF10162931F01211531054105AD
:10134000510579F7BF01C8010E949408E80EF91E03
:10135000652D762D872D9C2D0E9433199B01AC01A4
:10136000C501B4010E9420184B015C01DA94D11030
:10137000C2CFC701A2960FB6F894DEBF0FBECDBF95
:10138000DF91CF911F910F91FF90EF90DF90CF9061
:10139000BF90AF909F908F907F906F905F904F9095
:1013A0003F902F9008950F931F93CF93DF93EC01FD
:1013B0000E9494088C016BE573E0CE010E949408B2
:1013C000800F911FDF91CF911F910F9108951F9270
:1013D0000F920FB60F9211242F933F934F935F9369
:1013E0006F937F938F939F93AF93BF93EF93FF93ED
:1013F00083EA94E00E947803FF91EF91BF91AF914F
:101400009F918F917F916F915F914F913F912F911C
:101410000F900FBE0F901F9018951F920F920FB64E
:101420000F9211242F938F939F93EF93FF93E0914B
:10143000B304F091B4048081E091B904F091BA044E
:1014400082FD12C090818091BC048F5F8F732091C8
:10145000BD04821751F0E091BC04F0E0ED55FB4F64
:10146000958F8093BC0401C08081FF91EF919F9183
:101470008F912F910F900FBE0F901F90189590E0B5
:10148000FC01E859FF4F2491FC01EA57FA4F3491CF
:10149000FC01EC55FA4FE491EE2309F43CC0222301
:1014A00039F1233091F038F42130A9F0223001F5E0
:1014B00084B58F7D12C0273091F02830A1F0243000
:1014C000B9F4809180008F7D03C0809180008F7778
:1014D000809380000DC084B58F7784BD09C0809152
:1014E000B0008F7703C08091B0008F7D8093B000F3
:1014F000F0E0EE0FFF1FE656FA4FA591B4919FB7AB
:10150000F894611104C08C913095382302C0EC919D
:101510003E2B3C939FBF08951F93CF93DF9385EDA0
:101520008093BC008091070490910804A091090465
:10153000B0910A040796A11DB11D23E0B695A795A9
:10154000979587952A95D1F72091BC0024FF53C029
:1015500040910704509108046091090470910A04B5
:10156000452B462B472B81F30097A105B10541F090
:101570002AE22A95F1F700C00197A109B109E4CF49
:1015800080910604C1E0C09305048823B1F1D09195
:10159000B8001091BA008091BC008A7B8093BC0097
:1015A00060E082E10E943F0A60E083E10E943F0A1E
:1015B00010924F04C09351041092500461E082E1F4
:1015C0000E943F0A61E083E10E943F0A8091B900D6
:1015D0008E7F8093B9008091B9008D7F8093B90090
:1015E00088E48093B80085E48093BC001093BA002F
:1015F000D093B80002C010924F04DF91CF911F9199
:101600000895CF93DF9390E0FC01EA57FA4F2491BD
:10161000FC01EC55FA4F8491882361F190E0880F2A
:10162000991FFC01E458FF4FC591D491FC01E65687
:10163000FA4FA591B491611109C09FB7F8948881C0
:10164000209582238883EC912E230BC0623061F4B5
:101650009FB7F8948881322F309583238883EC914B
:101660002E2B2C939FBF06C08FB7F894E8812E2BAA
:1016700028838FBFDF91CF9108958E3008F08E5070
:101680008770806480937C0080917A00806480936E
:101690007A0080917A0086FDFCCF8091780090914D
:1016A000790008958230910538F0880F991F880FCE
:1016B000991F05970197F1F708958F929F92AF9226
:1016C000BF92CF92DF92EF92FF926B017C010E945A
:1016D00013044B015C01C114D104E104F104F1F0E5
:1016E0000E941304DC01CB0188199909AA09BB09DE
:1016F000883E9340A105B10570F321E0C21AD108DC
:10170000E108F10888EE880E83E0981EA11CB11C48
:10171000C114D104E104F10419F7DDCFFF90EF907B
:10172000DF90CF90BF90AF909F908F9008951F92C1
:101730000F920FB60F9211242F933F938F939F9385
:10174000AF93BF938091760490917704A091780431
:10175000B09179043091750423E0230F2D3720F4E4
:101760000196A11DB11D05C026E8230F0296A11DFB
:10177000B11D209375048093760490937704A09311
:101780007804B093790480917A0490917B04A091BD
:101790007C04B0917D040196A11DB11D80937A0453
:1017A00090937B04A0937C04B0937D04BF91AF9190
:1017B0009F918F913F912F910F900FBE0F901F908F
:1017C00018950F931F93CF93DF931F92CDB7DEB77A
:1017D0008C01698360E0FC01868D0E943F0A41E034
:1017E00050E0BE016F5F7F4FF801838D948D0E94A2
:1017F0001A0E0F90DF91CF911F910F9108951F93B3
:10180000CF93DF93EC01162F60E20E94E10B1111E0
:1018100002C06CE001C06DE0CE01DF91CF911F915D
:101820000C94E10B1F920F920FB60F9211242F937D
:101830003F934F935F936F937F938F939F93AF9358
:10184000BF93EF93FF938091B900887F803609F4AE
:101850009CC068F5883209F45BC090F4803109F4CB
:1018600054C038F4882309F4F2C0883009F44DC01C
:10187000F2C0883109F44CC0803209F45DC0EBC07D
:10188000803409F468C048F4803309F455C08833C3
:1018900009F0E1C080934E04D4C0803509F44FC0F4
:1018A000883509F45DC0883409F0D5C0D2C08839C4
:1018B00009F4C3C0A8F4883709F467C038F488363F
:1018C00009F463C0803709F460C0C5C0883809F4E2
:1018D000B4C0803909F45FC0803809F0BCC05BC077
:1018E000803B09F484C038F4803A09F466C0883A31
:1018F00009F47DC0B0C0803C09F4A3C0883C09F461
:10190000A0C0883B09F486C0A6C08091740410C0B2
:101910009091730480917204981770F5E0917304AC
:1019200081E08E0F80937304F0E0EE5AFB4F8081CC
:101930008093BB0085EC82C080934E048AC0E09106
:10194000730481E08E0F809373048091BB00F0E0FC
:10195000EE5AFB4F808390917304809172046AC0A9
:10196000E091730481E08E0F809373048091BB003B
:10197000F0E0EE5AFB4F808380915104811169C0E1
:1019800081E08093500484EA5DC083E080934F043B
:1019900010924D04CFCF80914D04803208F04DC09D
:1019A000E0914D0481E08E0F80934D048091BB0047
:1019B000F0E0E35DFB4F8083BDCF85EC8093BC00FE
:1019C00010924F0480914D04803230F4E0914D0428
:1019D000F0E0E35DFB4F108260914D0470E08DE21A
:1019E00094E0E0E0F0E0099510924D0434C084E00A
:1019F00080934F0410922C0410922B04E0E0F0E04E
:101A0000099580912B04811105C081E080932B04FE
:101A100010920B04E0912C0481E08E0F80932C0433
:101A2000F0E0E55FFB4F80818093BB0090912C0438
:101A300080912B04981708F47DCF85E88093BC0033
:101A40000AC085EC8093BC0010924F0404C0109231
:101A50004E040E948C0AFF91EF91BF91AF919F912C
:101A60008F917F916F915F914F913F912F910F9047
:101A70000FBE0F901F901895FC0120812EBD0DB454
:101A800007FEFDCF2EB5FC01208308959F92AF92F3
:101A9000BF92CF92DF92EF92FF920F931F93CF935B
:101AA000DF93EC016B0188859985892B11F010E893
:101AB00001C011E0F6019080892D8123AA24A3940E
:101AC0008111A12C2C813D814E815F8160E271EA00
:101AD00087E090E00E94701A022FB12CE22EF12CC8
:101AE000002319F0C7010E94520B8A85877FB9F540
:101AF0008D858F3FB9F0992D912381E009F480E025
:101B00008A1581F0EF85F8898F89992331F09081CA
:101B1000892B8083AA24A39405C090818095892372
:101B20008083A12CE989FA899081898D892B808312
:101B3000002319F0C7010E94520B8E858F3F39F0A8
:101B4000EB89FC899081888D892309F0B12AE98984
:101B5000FA899081898D8095892380832CC0E989B9
:101B6000FA899081898D892B8083002319F0C70120
:101B70000E94520B8D858F3F69F0EF85F8898F8920
:101B8000992D912319F09081892B03C09081809524
:101B900089238083E989FA899081898D80958923B9
:101BA00080838E858F3F39F0EB89FC899081888D09
:101BB000892309F0B12A8E858F3F11F0F601B0829A
:101BC00088859985892B79F4110F111189CFDF91BF
:101BD000CF911F910F91FF90EF90DF90CF90BF902A
:101BE000AF909F9008951695F0CF88EF91E0E1E0D7
:101BF000F1E0DF019C011D9221503040E1F710928D
:101C0000630580916405833508F483E5809364055A
:101C100010926505809166058F3208F48FE28093FB
:101C2000660510924D0510924C0510924F051092CA
:101C30004E050895AF92BF92CF92DF92EF92FF923E
:101C40000F931F93CF93DF931F92CDB7DEB78C0115
:101C50005B016A01DC018D919C911197892B41F008
:101C60001296ED91FC911397908181819CBD8DBD61
:101C7000F80183858F3F19F060E00E943F0A7501EB
:101C8000CA0CDB1CEC14FD04A9F0D7018D917D0179
:101C90008983F80180819181892B29F0CE010196F9
:101CA0000E943C0DEFCFBE016F5F7F4FC8010E94C5
:101CB000460DE8CFD8011B968C918F3F19F061E05B
:101CC0000E943F0A81E00F90DF91CF911F910F9109
:101CD000FF90EF90DF90CF90BF90AF900895CF939B
:101CE000C82F87FDCFE7C0935F0561E280E495E0F0
:101CF0000E94E10B6C2F606880E495E00E94E10B8C
:101D000060E280E495E0CF910C94E10BCF93809159
:101D10005D0587FD13C061E00E94010B60E08091CA
:101D20005D050E943F0A61E070E080E090E00E9463
:101D30005D0B61E080915D050E943F0AC0916005E6
:101D4000C83008F0C7E0C093600561E280E495E028
:101D50000E94E10B6C2F606180E495E00E94E10B32
:101D600060E280E495E00E94E10B80915F050E94B3
:101D70006F0E60E280E495E00E94E10B6CE080E48D
:101D800095E0CF910C94E10B1F93CF93DF9390914B
:101D90006105992361F0809162058F5F891718F4BE
:101DA0008093620504C0109262050E94860ED09155
:101DB0006505D695D695D6958091660586958695C6
:101DC000869590E02D2F30E08217930764F16D2FF8
:101DD000606480E495E00E94E10BC091630510917E
:101DE00064056C2F606880E495E00E94E10B61E07F
:101DF00080915E050E943F0A412F50E06C2F70E0F9
:101E0000461B570B4F5F5F4F84E5D89F600D711DD8
:101E100011246F5F7E4F80915B0590915C050E945D
:101E20001A0EDF5FC9CF60E480E495E00E94E10B09
:101E300083E580936305109264058FE280936505C6
:101E400010926605DF91CF911F910895BC0180E447
:101E500095E00C949408CF93DF93AB01BC0122E092
:101E600083EA94E00E94A908EC016BE573E083EA41
:101E700094E00E9494088C0F9D1FDF91CF910895EC
:101E80002F923F924F925F926F927F928F929F928A
:101E9000AF92BF92CF92DF92EF92FF920F931F9378
:101EA000CF93DF93CDB7DEB76B970FB6F894DEBF55
:101EB0000FBECDBF9B8F8A8F1B014A01D22E19877F
:101EC00008873701A982DC0159962D913C915A97D8
:101ED0002115310509F0FFC018968D919C91199735
:101EE000681779070CF0E7C11A968D919C911B97A2
:101EF000481759070CF0DFC1EC2DF0E0FB83EA83B3
:101F00009B0146E0C49E200D311D11243D872C8786
:101F1000121613060CF0CFC16A2D70E07B876A871A
:101F200083E0660F771F8A95E1F77F876E87CB0185
:101F3000880D991D181619060CF0BDC158968C9184
:101F4000811104C08FEA8D1508F4D394AA8DBB8D3E
:101F5000ED91FC9111970284F385E02DCD01099557
:101F6000B5E0DB9EC0011124EC2DF0E0F98BE88B8D
:101F700091012B5F3F4F3B8B2A8B3D822C822101AD
:101F8000AC01421953095D8B4C8B7981672F70E04E
:101F90007F8B6E8BC4010896998F888FEC89FD89A1
:101FA000E40DF51DEA57FF4FD49054019F828E82B5
:101FB000D0FE16C0AA8DBB8DED91FC91B1E0CB1285
:101FC00009C02981213031F40484F585E02D28856C
:101FD000398519C00684F785E02DE884F9841DC091
:101FE000488559854615570519F1AA8DBB8DED9188
:101FF000FC91B1E0CB120DC02981213051F4048451
:10200000F585E02D9301A501B2018A8D9B8D09957F
:102010000FC00684F785E02D73010A851B852A8190
:102020003B814E815F816C817D818A8D9B8D09957D
:10203000D6943FEFA31AB30A4E815F816E897F89E0
:10204000460F571F5F834E83888D998DA816B9065A
:1020500009F0AECF9FEF491A590AAC81BD81E889DA
:10206000F989AE0FBF1FBD83AC832A893B89421615
:10207000530609F093CF488559854615570509F44D
:10208000F8C0AA8DBB8DED91FC91B1E0CB1211C0CF
:102090002981213071F4B1016B5F7F4F0088F18994
:1020A000E02D830128E030E0A4018A8D9B8D099505
:1020B000E0C06C857D854A815B81641B750B06845D
:1020C000F785E02D73010E851F859A01A4018A8D85
:1020D0009B8D0995CEC0F9013496E491DE1AF90181
:1020E000329685919491B7E0DB9E800D911D11246D
:1020F000F901259134913B8B2A8BFC012591349178
:102100005901FC0132965490319634913C873296B5
:1021100074903196149141E04C1518F05981523069
:1021200068F0672D072C000C770B7D836C83812F63
:10213000012E000C990B9B838A8304C01B821A8298
:102140001D821C82AA8DBB8DED91FC91119702849A
:10215000F385E02DCD010995412CD12C612CF9811D
:10216000EF2FF0E0FF83EE832C2D30E03B872A87B2
:10217000A401410F511D17FD5A955F8B4E8BB10184
:10218000670D711D77FC7A95798F688F7C8567164E
:1021900008F06FC0262D30E04A815B81420F531F4B
:1021A000AE81BF81A49FC001A59F900DB49F900DEB
:1021B0001124F401E80FF91FF98BE88B842D712CA1
:1021C0004E895F89420F531F5D8B4C8B751408F04D
:1021D0004DC051E0580F5E87877041F4C5010196EC
:1021E000EA89FB89EA0DFB1DD4905C01D7FE3AC059
:1021F00061E0C61216C07981713099F4AA8DBB8D49
:10220000ED91FC9111970484F585E02D28853985A1
:102210004C895D89688D798D670D711DCD0109959A
:1022200021C08C819D81870D911DEA85FB858E9F44
:10223000B0018F9F700D9E9F700D1124620D731D54
:10224000AA8DBB8DED91FC9111970684F785E02D49
:10225000E884F9840E811F812A853B854889598944
:10226000CD010995DD0C73948E85B0CF450C639438
:102270008DCFAA8DBB8DED91FC9111970688F789C2
:10228000E02DCD016B960FB6F894DEBF0FBECDBF2B
:10229000DF91CF911F910F91FF90EF90DF90CF9042
:1022A000BF90AF909F908F907F906F905F904F9076
:1022B0003F902F9009946B960FB6F894DEBF0FBE37
:1022C000CDBFDF91CF911F910F91FF90EF90DF90E5
:1022D000CF90BF90AF909F908F907F906F905F90C6
:1022E0004F903F902F900895CF93DF9300D000D070
:1022F00000D0CDB7DEB7789484B5826084BD84B554
:10230000816084BD85B5826085BD85B5816085BDF0
:1023100080916E00816080936E00109281008091A8
:102320008100826080938100809181008160809330
:102330008100809180008160809380008091B10055
:1023400084608093B1008091B00081608093B00080
:1023500080917A00846080937A0080917A00826014
:1023600080937A0080917A00816080937A008091D6
:102370007A00806880937A001092C100E091B304E3
:10238000F091B40482E08083E091AF04F091B00456
:102390001082E091B104F091B2048FEC808310922E
:1023A000BB04E091B704F091B80486E08083E0912B
:1023B000B504F091B604808180618083E091B5041A
:1023C000F091B604808188608083E091B504F0913B
:1023D000B604808180688083E091B504F091B604F2
:1023E00080818F7D808361E088E00E94010B61E045
:1023F00089E00E94010B61E08AE00E94010B61E02C
:102400008BE00E94010B20915B0530915C053A83C3
:102410002983D9011B968C918F3F49F061E00E947E
:10242000010B61E0E981FA8183850E943F0AA9815D
:10243000BA818D919C91892B09F434C01FB7F8940F
:1024400080917E04811127C0EEEAF5E08491E0E9F5
:10245000F5E09491E82FF0E0EE0FFF1FE458FF4FF6
:10246000A591B491EC91E92321F461E08AE00E9406
:102470003F0A61E08AE00E94010B8CB580618CBD4F
:102480008CB580648CBD61E08DE00E94010B61E041
:102490008BE00E94010B80917E048F5F80937E040D
:1024A0001FBF2FC061E0E981FA8184850E94010B82
:1024B000A981BA811A968C911A978B7F21F460E0DA
:1024C0001C968C9104C061E0E981FA8184850E94A8
:1024D0003F0AA981BA811D968C918F3F49F061E036
:1024E0000E94010B61E0E981FA8185850E943F0A23
:1024F000A981BA811E968C918F3F19F060E00E94ED
:10250000010B81E0E981FA81838F61E080915E05B2
:102510000E94010B80915D0587FD03C061E00E9470
:10252000010B84E08093600588E280935F05109240
:102530006105109262050E94860E109263058091DB
:102540006405833508F483E580936405109265057E
:10255000809166058F3208F48FE2809366050E94B1
:10256000C40E8BE40E946F0E0E94C40E68EE73E0EE
:1025700080E090E00E945D0B0E94F50D21E030E0CC
:102580003093530520935205309351052093500505
:1025900010924D0510924C0530934F0520934E0537
:1025A00011E010935405109355056EE573E080E437
:1025B00095E00E94D309109354051093550581E0CE
:1025C00090E090935305809352059093510580932A
:1025D000500586E190E090934D0580934C0584E191
:1025E00090E090934F0580934E056CE673E080E495
:1025F00095E00E94D3090E94C40E60ED77E080E070
:1026000090E00E945D0B0E94F50D82E10E943D0B5F
:10261000BC01990F880B990B0E94351960939F0498
:102620007093A0048093A1049093A20483E10E947C
:102630003D0BBC01990F880B990B0E9435196093D3
:102640009B0470939C0480939D0490939E0420E0CF
:1026500030E040E450E40E94E51918162CF5809112
:102660000001882309F165E773E083EA94E00E94A2
:10267000D3096FE773E083EA94E00E94D30969E825
:1026800073E083EA94E00E94D30963E973E083EA8C
:1026900094E00E94D3096DE973E083EA94E00E941C
:1026A000D30910920001DBCF20E030E040E450E499
:1026B00060919F047091A0048091A1049091A20464
:1026C0000E94E51918160CF0DAC104E610E0E12CBE
:1026D000F12C1D8219828EE00E943D0BBC01990FE6
:1026E000880B990B0E9435195B016C019B01AC01B1
:1026F000B7018D8199810E948D1887FF03C07501F4
:10270000CD82D9828BE193E00197F1F70150110955
:1027100011F720E030E040EA50E4B7018D81998163
:102720000E94EA1920E030EC4FE754E40E9492182E
:102730002AE939E949E151E40E94EA1920E030E050
:1027400040EC51E40E94201823EF34E045EB5FE3B6
:102750000E9492182B013C0104E610E0E12CF12CC0
:102760001D8219828FE00E943D0BBC01990F880BDE
:10277000990B0E9435195B016C019B01AC01B701FB
:102780008D8199810E948D1887FF03C07501CD82CC
:10279000D9828BE193E00197F1F70150110911F70C
:1027A00020E030E040EA50E4B7018D8199810E9439
:1027B000EA1920E030EC4FE754E40E9492182AE92D
:1027C00039E949E151E40E94EA1920E030E040ECA7
:1027D00051E40E94201823EF34E045EB5FE30E94B0
:1027E00092184B015C01A4E6B0E0BA83A983E12C06
:1027F000F12C00E010E080E10E943D0BBC01990F3C
:10280000880B990B0E9435191B016C019B01AC01CF
:10281000B701C8010E948D1887FF02C071018601AF
:102820008BE193E00197F1F7E981FA813197FA831F
:10283000E983EF2B01F720E030E040EA50E4B701F4
:10284000C8010E94EA1920E030EC4FE754E40E94EE
:1028500092182AE939E949E151E40E94EA1920E095
:1028600030E040EC51E40E94201823EF34E045EBC7
:102870005FE30E94921869837A838B839C8384E64A
:10288000282E312CE12CF12C10E000E081E10E9497
:102890003D0BBC01990F880B990B0E9435196E8373
:1028A0007D836C019B01AC01B701812F902F0E94A9
:1028B0008D1887FF04C0EE80FD801C2D0D2D8BE14F
:1028C00093E00197F1F7F1E02F1A3108F9F620E0D3
:1028D00030E040EA50E4B701812F902F0E94EA19BE
:1028E00020E030EC4FE754E40E9492182AE939E9DD
:1028F00049E151E40E94EA1920E030E040EC51E463
:102900000E94201823EF34E045EB5FE30E94921809
:102910006B017C0120E030E040E450E460919B04D6
:1029200070919C0480919D0490919E040E94E519F1
:102930001816C4F4C301B2010E942B0FC501B401E3
:102940000E942B0F69817A818B819C810E942B0FC1
:10295000C701B6010E942B0F69E673E083EA94E099
:102960000E94D30983EA93E00E94260F83EB93E051
:102970000E94260F82EC93E00E94260F22E0B30112
:10298000A20180E495E00E94A90887EC93E00E94F0
:10299000260F8DEC93E00E94260F22E0B501A401E2
:1029A00080E495E00E94A90887EC93E00E94260F3E
:1029B00082ED93E00E94260F22E049815A816B81CB
:1029C0007C8180E495E00E94A90887EC93E00E9456
:1029D000260F87ED93E00E94260F22E0B701A601A3
:1029E00080E495E00E94A90887EC93E00E94260FFE
:1029F0008CE593E00E94260F0E94C40E0E94F50D04
:102A000021E73DE342E651E4C301B2010E94E5192A
:102A1000181614F461E001C060E088E00E943F0AEB
:102A200021E73DE342E651E4C501B4010E94E51906
:102A3000181614F461E001C060E089E00E943F0ACA
:102A400021E73DE342E651E469817A818B819C81F3
:102A50000E94E519181614F461E001C060E08AE0F4
:102A60000E943F0A21E73DE342E651E4C701B60177
:102A70000E94E51918160CF0E1C161E0E0C18EE09A
:102A80000E943D0BBC01990F880B990B0E943519D0
:102A90006B017C0160939704709398048093990470
:102AA00090939A048FE00E943D0BBC01990F880B14
:102AB000990B0E9435192B013C016093930470938C
:102AC0009404809395049093960480E10E943D0BBA
:102AD000BC01990F880B990B0E9435194B015C01C1
:102AE00060938F0470939004809391049093920468
:102AF00081E10E943D0B9A83898320E030E040EA27
:102B000050E4C701B6010E94EA1920E030EC4FE71B
:102B100054E40E9492182AE939E949E151E40E94FB
:102B2000EA1920E030E040EC51E40E9420186B01EB
:102B30007C0160938B0470938C0480938D0490933C
:102B40008E0420E030E040EA50E4C301B2010E946C
:102B5000EA1920E030EC4FE754E40E9492182AE989
:102B600039E949E151E40E94EA1920E030E040EC03
:102B700051E40E9420186093870470938804809326
:102B8000890490938A0420E030E040EA50E4C501D3
:102B9000B4010E94EA1920E030EC4FE754E40E94AF
:102BA00092182AE939E949E151E40E94EA1920E042
:102BB00030E040EC51E40E9420186093830470934D
:102BC0008404809385049093860429813A81B90115
:102BD000330F880B990B0E94351920E030E040EA52
:102BE00050E40E94EA1920E030EC4FE754E40E94E0
:102BF00092182AE939E949E151E40E94EA1920E0F2
:102C000030E040EC51E40E94201860937F04709300
:102C10008004809381049093820420E030E040E4BB
:102C200050E460919B0470919C0480919D0490916C
:102C30009E040E94E519181644F5C701B6010E94CA
:102C40002B0F609187047091880480918904909182
:102C50008A040E942B0F60918304709184048091F8
:102C60008504909186040E942B0F60917F047091DF
:102C7000800480918104909182040E942B0F60EA6D
:102C800073E083EA94E00E94D3098CED93E00E9404
:102C9000260F83EB93E00E94260F8CEE93E00E94B8
:102CA000260F40918B0450918C0460918D0470919B
:102CB0008E0422E080E495E00E94A90881EF93E071
:102CC0000E94260F8CE593E00E94260F84EF93E08C
:102CD0000E94260F409187045091880460918904D6
:102CE00070918A0422E080E495E00E94A90881EFB7
:102CF00093E00E94260F8CE593E00E94260F89EF57
:102D000093E00E94260F40918304509184046091C7
:102D100085047091860422E080E495E00E94A90871
:102D200081EF93E00E94260F8CE593E00E94260F2E
:102D30008EEF93E00E94260F40917F045091800413
:102D4000609181047091820422E080E495E00E9409
:102D5000A90881EF93E00E94260F8CE593E00E9482
:102D6000260F0E94C40E0E94F50D80917F04909161
:102D70008004A0918104B091820489839A83AB83FB
:102D8000BC83C0908304D0908404E0908504F090CC
:102D900086048090870490908804A0908904B09065
:102DA0008A0440908B0450908C0460908D04709045
:102DB0008E0420E030E040EA51E4C301B2010E94F9
:102DC000E51918160CF041C061E088E00E943F0A46
:102DD00020E030E040EA51E4C501B4010E94E51969
:102DE00018160CF03EC061E089E00E943F0A20E026
:102DF00030E040EA51E4C701B6010E94E519181617
:102E0000E4F561E08AE00E943F0A20E030E040EA19
:102E100051E469817A818B819C810E94E5191816A1
:102E20000CF42BCE20E030E040EA51EC69817A814D
:102E30008B819C810E948D1887FD1FCE60E08BE006
:102E40000E943F0A0E940904E0CB20E030E040EA03
:102E500051ECC301B2010E948D1887FDB5CF60E02F
:102E6000B4CF20E030E040EA51ECC501B4010E944B
:102E70008D1887FDB8CF60E0B7CF20E030E040EAA2
:102E800051ECC701B6010E948D1887FDBACF60E0F2
:102E9000B9CFCF93DF93E3EAF4E01382128288EE96
:102EA00093E0A0E0B0E084839583A683B78323E01A
:102EB00033E03183208325EC30E03587248724EC10
:102EC00030E03787268720EC30E0318B208B21ECF7
:102ED00030E0338B228B22EC30E0358B248B26ECD8
:102EE00030E0378B268B118E128E138E148EE7E610
:102EF000F5E01382128284839583A683B78385E1EC
:102F000093E091838083C0E4D5E01B821A8224E59C
:102F100030E03D832C8380E390E09F838E8339876C
:102F200028879B878A871E8A1D861C861F861E8689
:102F300081E08D8B8C8B2FEF3FEF3B8B2A8B398B76
:102F4000288B8F8B188E1A8E198E87E293E09983C7
:102F500088838CE190E00E94AC1ADC0111961C92EF
:102F60001E9213961C921E92129784E01B968C93CD
:102F70001B9787E01C968C931C978FEF1E968C9363
:102F80001E9786E01D968C931D97E8EAF5E0E49184
:102F9000F0E0EE0FFF1FE656FA4F8591949156969A
:102FA0009C938E935597EAE8F5E0E4915A96EC935A
:102FB0005A97EAEAF5E0E491F0E0EE0FFF1FE656DB
:102FC000FA4F8591949150969C938E931F97ECE8BD
:102FD000F5E0E4915796EC935797EBEAF5E0E4912E
:102FE000F0E0EE0FFF1FE656FA4F8591949152964E
:102FF0009C938E935197EDE8F5E0E4915996EC930C
:10300000599740E059E06DE370E014964D935D935D
:103010006D937C93179781E090E019969C938E9323
:1030200018971A961C921A975B961C925B97BC8F06
:10303000AB8F85E08E8F83E08D8FDF91CF910895E8
:103040005058BB27AA270E9438180C94AB190E942D
:103050009D1938F00E94A41920F039F49F3F19F40B
:1030600026F40C949A190EF4E095E7FB0C9494194D
:10307000E92F0E94BC1958F3BA1762077307840737
:10308000950720F079F4A6F50C94DE190EF4E0957E
:103090000B2EBA2FA02D0B01B90190010C01CA0112
:1030A000A0011124FF27591B99F0593F50F4503EBD
:1030B00068F11A16F040A22F232F342F4427585FAF
:1030C000F3CF469537952795A795F0405395C9F7C7
:1030D0007EF41F16BA0B620B730B840BBAF091507F
:1030E000A1F0FF0FBB1F661F771F881FC2F70EC01E
:1030F000BA0F621F731F841F48F4879577956795F1
:10310000B795F7959E3F08F0B0CF9395880F08F0DC
:103110009927EE0F9795879508950E94701908F4E6
:1031200081E008950E94A6180C94AB190E94A4197E
:1031300058F00E949D1940F029F45F3F29F00C944B
:10314000941951110C94DF190C949A190E94BC190E
:1031500068F39923B1F3552391F3951B550BBB27C6
:10316000AA2762177307840738F09F5F5F4F220F0B
:10317000331F441FAA1FA9F335D00E2E3AF0E0E802
:1031800032D091505040E695001CCAF72BD0FE2F4C
:1031900029D0660F771F881FBB1F261737074807E0
:1031A000AB07B0E809F0BB0B802DBF01FF27935898
:1031B0005F4F3AF09E3F510578F00C9494190C94AF
:1031C000DF195F3FE4F3983ED4F3869577956795D2
:1031D000B795F7959F5FC9F7880F911D96958795CD
:1031E00097F90895E1E0660F771F881FBB1F6217EC
:1031F00073078407BA0720F0621B730B840BBA0BAA
:10320000EE1F88F7E09508950E94C41988F09F5733
:1032100098F0B92F9927B751B0F0E1F0660F771FFA
:10322000881F991F1AF0BA95C9F714C0B13091F0F0
:103230000E94DE19B1E008950C94DE19672F782FF3
:103240008827B85F39F0B93FCCF3869577956795B5
:10325000B395D9F73EF490958095709561957F4F21
:103260008F4F9F4F0895E89409C097FB3EF49095C7
:103270008095709561957F4F8F4F9F4F9923A9F04F
:10328000F92F96E9BB279395F695879577956795DE
:10329000B795F111F8CFFAF4BB0F11F460FF1BC022
:1032A0006F5F7F4F8F4F9F4F16C0882311F096E9B5
:1032B00011C0772321F09EE8872F762F05C0662363
:1032C00071F096E8862F70E060E02AF09A95660F1C
:1032D000771F881FDAF7880F9695879597F90895D5
:1032E000990F0008550FAA0BE0E8FEEF1616170617
:1032F000E807F907C0F012161306E407F50798F07F
:10330000621B730B840B950B39F40A2661F0232B97
:10331000242B252B21F408950A2609F4A140A69513
:103320008FEF811D811D089597F99F6780E870E0F8
:1033300060E008959FEF80EC089500240A9416162B
:10334000170618060906089500240A941216130693
:10335000140605060895092E0394000C11F4882321
:1033600052F0BB0F40F4BF2B11F460FF04C06F5F3D
:103370007F4F8F4F9F4F089557FD9058440F551F13
:1033800059F05F3F71F04795880F97FB991F61F0E7
:103390009F3F79F087950895121613061406551F5E
:1033A000F2CF4695F1DF08C0161617061806991FCA
:1033B000F1CF86957105610508940895E894BB27BF
:1033C00066277727CB0197F908950E94701908F4B2
:1033D0008FEF08950E94FD190C94AB190E949D195E
:1033E00038F00E94A41920F0952311F00C94941940
:1033F0000C949A1911240C94DF190E94BC1970F3D3
:10340000959FC1F3950F50E0551F629FF001729F89
:10341000BB27F00DB11D639FAA27F00DB11DAA1F98
:10342000649F6627B00DA11D661F829F2227B00DE5
:10343000A11D621F739FB00DA11D621F839FA00D70
:10344000611D221F749F3327A00D611D231F849FC0
:10345000600D211D822F762F6A2F11249F57504017
:103460009AF0F1F088234AF0EE0FFF1FBB1F661F92
:10347000771F881F91505040A9F79E3F510580F05B
:103480000C9494190C94DF195F3FE4F3983ED4F345
:10349000869577956795B795F795E7959F5FC1F7FF
:1034A000FE2B880F911D9695879597F908950E9498
:1034B0007019880B990B089597FB072E16F400944A
:1034C00007D077FD09D00E94921A07FC05D03EF480
:1034D000909581959F4F0895709561957F4F0895C0
:1034E000A1E21A2EAA1BBB1BFD010DC0AA1FBB1F08
:1034F000EE1FFF1FA217B307E407F50720F0A21B7A
:10350000B30BE40BF50B661F771F881F991F1A94E6
:1035100069F760957095809590959B01AC01BD0110
:10352000CF010895AA1BBB1B51E107C0AA1FBB1FF7
:10353000A617B70710F0A61BB70B881F991F5A953F
:10354000A9F780959095BC01CD010895EE0FFF1F5E
:103550000590F491E02D09940F931F93CF93DF937F
:103560008230910510F482E090E0E0917505F091D1
:10357000760520E030E0A0E0B0E0309719F140811E
:1035800051810281138148175907C8F084179507A4
:1035900069F4109731F012960C93129713961C93BE
:1035A00027C0009375051093760522C021153105BB
:1035B00019F04217530718F49A01BD01EF01DF011A
:1035C000F801DBCF21153105F9F0281B390B243028
:1035D000310580F48A819B816115710521F0FB0121
:1035E0009383828304C09093760580937505FE01D2
:1035F000329644C0FE01E20FF31F81939193225053
:103600003109398328833AC02091730530917405BC
:10361000232B41F42091FB023091FC02309374057E
:10362000209373052091F9023091FA02211531059A
:1036300041F42DB73EB74091FD025091FE02241B8C
:10364000350BE0917305F0917405E217F307A0F4D0
:103650002E1B3F0B2817390778F0AC014E5F5F4FE8
:103660002417350748F04E0F5F1F509374054093A1
:1036700073058193919302C0E0E0F0E0CF01DF9108
:10368000CF911F910F910895CF93DF93009709F485
:1036900081C0FC01329713821282A0917505B0910E
:1036A0007605109781F420813181820F931F20913C
:1036B0007305309174052817390751F5F093740597
:1036C000E093730567C0ED0120E030E0CE17DF071F
:1036D00040F44A815B819E0141155105F1F0EA01F8
:1036E000F5CFD383C28340815181840F951FC817C2
:1036F000D90759F488819981840F951F0296918387
:1037000080838A819B81938382832115310529F4EB
:10371000F0937605E09375053DC0E901FB83EA83EC
:1037200049915991C40FD51FEC17FD0761F48081B1
:103730009181840F951F0296E90199838883828184
:1037400093819B838A83E0E0F0E012968D919C91B7
:103750001397009719F0FD01DC01F7CF8D919C9133
:1037600011979D012E5F3F4F820F931F209173058C
:10377000309174052817390769F4309729F41092AD
:1037800076051092750502C013821282B0937405FB
:0E379000A0937305DF91CF910895F894FFCFB9
:10379E00010000000000000000000000000000001A
:1037AE00000000000000000000000000000000000B
:1037BE0000000000000000C0E0F0F8FCFCFEFFFC82
:1037CE00E00000000000000000000000000000000B
:1037DE0000000000000000000000000000000000DB
:1037EE0000000000000000000000000000000000CB
:1037FE00000000000000F8F8F8F8F8F8F8F8F8F80B
:10380E00F8F8F0F0E0E0C080C0FCFFFFFFFF7F3F64
:10381E007FFFFFFFFFFF0000000000000000000020
:10382E00000000000000000000000000000000008A
:10383E00000000000000000000000000000000007A
:10384E0000000000000000000000000F1F3F7FFF7F
:10385E00FFFFFFFFFFFFFFE7C7C7878F9F9FFFFF9A
:10386E00FFC1C0E0FCFFFFFFFFFFFCFCFCFCFEFE07
:10387E00FEFCFCF8F8F0E0C0C00000000000000004
:10388E00000000000000000000000000000000002A
:10389E00000000000000000000000000000000001A
:1038AE00000080C0E0F1FBFFFFFFFFFF7F1F0F0F47
:1038BE0087E7FFFFFF1F1F3FF9F8F8F8F8F8F8FD4C
:1038CE00FFFFFFFFFFFFFFFFFF7F3F0F070100001E
:1038DE0000000000000000000000000000000000DA
:1038EE0000000000000000000000000000000000CA
:1038FE0000000000F0FEFFFFFFFFFFFFFFFFFFFFD6
:10390E00FE7E3F3F0F1FFFFFFFFCF0E0F1FFFFFFCA
:10391E00FFFFFCF0010101010101010100000000A7
:10392E000000000000000000000000000000000089
:10393E000000000000000000000000000000000079
:10394E000000000000000000030303030303030351
:10395E000101010100000000000000030F1F3F7F66
:10396E007FFFFFFFFF7F7F1F0300000000000000AE
:10397E000000000000000000000000000000000039
:10398E00000000000000000000000077052000008D
:10399E000000009A0307033103E703620340035458
:1039AE00030000000010050505B907F704FE04FB2F
:1039BE0004F80400000000BC070703B907B8073875
:1039CE0004F704FF06D706F306E7060607F70422F8
:1039DE0005FF0B9E06650620060306960537056E47
:1039EE00616E00696E66006F7666000D0A00564FB6
:1039FE004C54494D4554524F204143007C494E4949
:103A0E0043494F7C004368616E6E656C2031004304
:103A1E0068616E6E656C2032004368616E6E656C17
:103A2E002033004368616E6E656C20340041432F75
:103A3E00444300566F6C74696D6574726F20414318
:103A4E00200A002D2D2D2D2D2D2D2D2D2D2D2D2DF5
:103A5E002D0076413A20002056726D730076423A60
:103A6E00200076433A200076443A2000566F6C745C
:103A7E00696D6574726F204443200A0056413A20E6
:103A8E000020560056423A200056433A2000564433
:043A9E003A200000CA
:00000001FF
