:1000000014C048C179C12CC02BC02AC029C028C047
:1000100027C026C025C0A2C123C022C021C020C045
:100020001FC01EC01DC0DDC11BC011241FBECFE5F7
:10003000D1E0DEBFCDBF20E0A4E6B0E001C01D925C
:10004000A03BB207E1F710E0A0E6B0E0EAE4F7E099
:1000500002C005900D92A436B107D9F705D273C33B
:10006000CFCFEF92FF920F931F93CF93DF9305D3E0
:1000700064E070E091D20196C0E9D0E00CE610E0B7
:1000800024E0E22EF12C19921992F80181939193B8
:100090008F01F3D2B70180D20196F0E0CC3ADF07AE
:1000A00091F7DF91CF911F910F91FF90EF900895FD
:1000B00010BE13BE83B7856083BF12BE89B782604E
:1000C00089BF08958FE087BB88EE8BBF80E880BD35
:1000D00084E084B98AE085BF10928D0010928C0074
:1000E00010928F0010928E0010928B0010928A0056
:1000F0001092AD001092AC001092AF001092AE00C2
:1001000081E090E090936B0080936A009093890067
:100110008093880078948091AE009091AF00B1D226
:10012000A0CF80918C0090918D00019741F58FE0D8
:1001300088BB2FE936E891E0215030409040E1F74C
:1001400000C0000018BA2FE936E891E02150304095
:100150009040E1F700C0000088BB2FE936E881E05D
:10016000215030408040E1F700C0000018BA9FE9FC
:1001700026E831E0915020403040E1F73BC08FE06D
:1001800088BB9FE926E831E0915020403040E1F7FC
:1001900000C0000018BA9FE926E831E091502040E5
:1001A0003040E1F700C0000088BB9FE926E831E05D
:1001B000915020403040E1F700C0000018BA9FE99C
:1001C00026E831E0915020403040E1F700C00000C7
:1001D00088BB8FE996E821E0815090402040E1F70C
:1001E00000C0000018BA3FE986E891E03150804035
:1001F0009040E1F700C000000895ECE6F0E020E058
:1002000030E044E052E061E078E080918800909135
:100210008900281739070CF5819191918230910559
:1002200061F024F40197B1F478BB0AC083309105E2
:1002300031F0049779F468BB03C048BB01C058BBD8
:100240008FE79AE1A6E081509040A040E1F700C01E
:10025000000018BA2F5F3F4FD8CF08952091880033
:1002600030918900ECE6F0E0A0E9B0E080E090E0B9
:100270008217930774F4619171914D915D916417A8
:10028000750729F010928F0010928E000895019644
:10029000EFCF08951F920F920FB60F9211242F9354
:1002A0003F938F939F93EF93FF9321E030E0309340
:1002B0008B0020938A0080918E0090918F00892B73
:1002C00081F08091AC009091AD00FC01EE0FFF1F1A
:1002D000E057FF4F3183208301969093AD008093C8
:1002E000AC00FF91EF919F918F913F912F910F90D3
:1002F0000FBE0F901F9018951F920F920FB60F927E
:1003000011242F933F938F939F93EF93FF9322E0BA
:1003100030E030938B0020938A0080918E00909182
:100320008F00892B81F08091AC009091AD00FC0191
:10033000EE0FFF1FE057FF4F31832083019690930C
:10034000AD008093AC00FF91EF919F918F913F9111
:100350002F910F900FBE0F901F9018951F920F9224
:100360000FB60F9211242F933F934F935F938F9368
:100370009F93EF93FF9323E030E030938B00209323
:100380008A0080916A0090916B008095909590937F
:100390006B0080936A0040918E0050918F00413035
:1003A000510591F4019781F48091AC009091AD00DA
:1003B000FC01EE0FFF1FE057FF4F318320830196B2
:1003C0009093AD008093AC00FF91EF919F918F913E
:1003D0005F914F913F912F910F900FBE0F901F9003
:1003E00018951F920F920FB60F9211242F933F93DF
:1003F0004F935F938F939F93EF93FF9324E030E0AD
:1004000030938B0020938A0080916A0090916B005A
:100410008095909590936B0080936A0040918E0038
:1004200050918F004130510591F4019781F48091F2
:10043000AC009091AD00FC01EE0FFF1FE057FF4FA5
:100440003183208301969093AD008093AC00FF919F
:10045000EF919F918F915F914F913F912F910F90CD
:100460000FBE0F901F9018952DDE84E0E82EF12C22
:1004700002E010E0C1E0D0E093E0C92ED12C8091E1
:100480008C0090918D0082309105F1F15CF4009721
:1004900061F181309105B9F744DE10938D0000932E
:1004A0008C00EDCF8330910509F440C08430910574
:1004B00051F737DE10928B0010928A001092AD0037
:1004C0001092AC00D0938900C0938800D0936B0049
:1004D000C0936A0010928D0010928C00C2DD809152
:1004E000AE009091AF00CDD0CACF80918A0090919C
:1004F0008B00892B21F2D0938D00C0938C00109239
:100500008B0010928A00BBCF1092AD001092AC000D
:10051000D0936B00C0936A00D0938F00C0938E007D
:100520006CDED0928D00C0928C00A9CF2091AC00DF
:100530003091AD008091880090918900281739078B
:1005400009F58CDE80918E0090918F000097A9F0C4
:10055000019709F094CF10938D0000938C001092B6
:10056000AD001092AC0080918800909189000196B6
:10057000909389008093880082CFF0928D00E09262
:100580008C007DCF8091AE009091AF00019690934A
:10059000AF008093AE0073CF97FB072E16F4009444
:1005A00006D077FD08D00BD007FC05D03EF490951F
:1005B00081959F4F0895709561957F4F0895AA1B6F
:1005C000BB1B51E107C0AA1FBB1FA617B70710F03E
:1005D000A61BB70B881F991F5A95A9F78095909570
:1005E000BC01CD0108958F929F92AF92BF92CF929E
:1005F000DF92EF92FF92CF93DF93EC0168817981D4
:100600008A819B81611571058105910521F464E260
:1006100079ED8BE597E02DE133EF41E050E055D0E7
:1006200049015A0127EA31E440E050E035D06B013E
:100630007C012CEE34EF4FEF5FEFC501B4012CD0FD
:10064000DC01CB018C0D9D1DAE1DBF1DB7FF03C08E
:100650000197A109B04888839983AA83BB839F77B8
:10066000DF91CF91FF90EF90DF90CF90BF90AF9050
:100670009F908F900895B7DF089580E690E0B3DFF4
:100680000895A0E0B0E08093600090936100A09393
:100690006200B09363000895EE27FF27AA27BB27C7
:1006A00008C0A20FB31FE41FF51F220F331F441F02
:1006B000551F969587957795679598F37040A9F79C
:1006C000009799F7BD01CF010895052E97FB16F409
:1006D00000940FD057FD05D014D007FC02D046F48B
:1006E00008C050954095309521953F4F4F4F5F4F33
:1006F000089590958095709561957F4F8F4F9F4F8E
:100700000895A1E21A2EAA1BBB1BFD010DC0AA1F52
:10071000BB1FEE1FFF1FA217B307E407F50720F06A
:10072000A21BB30BE40BF50B661F771F881F991FE5
:100730001A9469F760957095809590959B01AC012E
:0A074000BD01CF010895F894FFCF2A
:04074A0001000000AA
:00000001FF
