:1000000014C014C145C12CC02BC02AC029C028C0AF
:1000100027C026C025C06EC123C022C021C020C079
:100020001FC01EC01DC0A9C11BC011241FBECFE52B
:10003000D1E0DEBFCDBF10E0A4E6B0E001C01D926C
:10004000AA3AB107E1F710E0A0E6B0E0E6E1F8E097
:1000500002C005900D92A436B107D9F724D2D9C3B6
:10006000CFCF8091860090918700019759F58FE05E
:1000700088BB88E893E129E130E0F9013197F1F795
:100080000197D9F718BA88E893E129E130E0F9013E
:100090003197F1F70197D9F78FE088BB88E893E1B2
:1000A00029E130E0F9013197F1F70197D9F718BA52
:1000B00088E893E129E130E0F9013197F1F7019700
:1000C000D9F708958FE088BB88E893E129E130E013
:1000D000F9013197F1F70197D9F718BA88E893E158
:1000E00029E130E0F9013197F1F70197D9F78FE075
:1000F00088BB88E893E129E130E0F9013197F1F715
:100100000197D9F718BA88E893E129E130E0F901BD
:100110003197F1F70197D9F78FE088BB88E893E131
:1001200029E130E0F9013197F1F70197D9F718BAD1
:1001300088E893E129E130E0F9013197F1F701977F
:10014000D9F70895EF92FF920F931F936091820069
:1001500070918300A6E6B0E020E030E094E0E92E64
:1001600049E150E082E0F82E01E018E039C08D91BD
:100170009C91119782309105A9F0833091051CF470
:10018000019759F506C083309105A9F0049729F528
:100190001BC018BB80E29EE4FA013197F1F701978A
:1001A000D9F71AC0E8BA80E29EE4FA013197F1F774
:1001B0000197D9F711C0F8BA80E29EE4FA013197AD
:1001C000F1F70197D9F708C008BB80E29EE4FA0175
:1001D0003197F1F70197D9F718BA2F5F3F4F129671
:1001E000261737070CF4C3CF1F910F91FF90EF90A4
:1001F00008956091820070918300A6E6B0E0EAE87D
:10020000F0E040E050E00EC02D913D918191919140
:100210002817390729F01092890010928800089554
:100220004F5F5F4F461757077CF308951F920F9259
:100230000FB60F9211242F933F938F939F93EF93B9
:10024000FF9321E030E0309385002093840080917B
:10025000880090918900892B81F08091A60090916F
:10026000A700FC01EE0FFF1FE657FF4F31832083ED
:1002700001969093A7008093A600FF91EF919F9124
:100280008F913F912F910F900FBE0F901F90189557
:100290001F920F920FB60F9211242F933F938F93BB
:1002A0009F93EF93FF9322E030E0309385002093FB
:1002B00084008091880090918900892B81F0809141
:1002C000A6009091A700FC01EE0FFF1FE657FF4F1D
:1002D0003183208301969093A7008093A600FF911D
:1002E000EF919F918F913F912F910F900FBE0F90A3
:1002F0001F9018951F920F920FB60F9211242F93F3
:100300003F934F935F938F939F93EF93FF9343E0BC
:1003100050E0509385004093840020916400309118
:10032000650020953095309365002093640080919E
:10033000880090918900019799F42130310581F46A
:100340008091A6009091A700FC01EE0FFF1FE657D9
:10035000FF4F5183408301969093A7008093A6009E
:10036000FF91EF919F918F915F914F913F912F91CD
:100370000F900FBE0F901F9018951F920F920FB6FF
:100380000F9211242F933F934F935F938F939F93DB
:10039000EF93FF9344E050E0509385004093840036
:1003A0002091640030916500209530953093650070
:1003B000209364008091880090918900019799F4BE
:1003C0002130310581F48091A6009091A700FC01B5
:1003D000EE0FFF1FE657FF4F518340830196909326
:1003E000A7008093A600FF91EF919F918F915F915D
:1003F0004F913F912F910F900FBE0F901F90189526
:10040000CF93DF936AD164E070E0F6D00196C0E04C
:10041000D0E0FE01E657FF4F11821082FE01EA593B
:10042000FF4F9183808359D164E070E0E5D001965D
:100430002296CC31D10569F7DF91CF9108958FE0F5
:1004400087BB88EE8BBF80E880BD84E084B98AE0FA
:1004500085BF80B7826080BF83B7856083BF1092FD
:1004600087001092860010928900109288001092E6
:100470008500109284001092A7001092A60010929E
:10048000A9001092A80081E090E09093650080930D
:1004900064009093830080938200789480E090E0E1
:1004A00020D1AEDF0895CF92DF92EF92FF920F93AB
:1004B0001F93CF93DF93C3DF54E0C52ED12C02E00E
:1004C00010E0C1E0D0E043E0E42EF12C4091860042
:1004D000509187004230510531F1433051053CF4D1
:1004E0004115510559F041305105A1F716C043306F
:1004F000510559F14430510569F762C0809184007B
:1005000090918500892B11F3D0938700C0938600CA
:100510001092850010928400D9CFA3DD109387003C
:1005200000938600D3CF1092A7001092A600D0931C
:100530006500C0936400D0938900C093880002DEF8
:10054000F0928700E0928600C1CF2091A600309102
:10055000A70080918200909183002817390711F538
:1005600048DE8091880090918900009721F00197E2
:1005700009F0ACCF05C0D0928700C0928600A6CF0C
:1005800010938700009386001092A7001092A60097
:1005900080918200909183000196909383008093D4
:1005A000820094CF50938700409386008091A800EA
:1005B0009091A90001969093A9008093A80086CFFE
:1005C00050DD10928500109284001092A7001092C6
:1005D000A600D0938300C0938200D0936500C0939F
:1005E000640010928700109286000ADF8091A800B4
:1005F0009091A90076D06ACF97FB092E07260AD0E2
:1006000077FD04D00CD006D000201AF470956195C7
:100610007F4F0895F6F7909581959F4F0895AA1BF7
:10062000BB1B51E107C0AA1FBB1FA617B70710F0DD
:10063000A61BB70B881F991F5A95A9F7809590950F
:10064000BC01CD010895A0E0B0E0E8E2F3E090C085
:10065000EC01A880B980CA80DB80A114B104C10478
:10066000D10441F484E2A82E89EDB82E8BE5C82E82
:1006700087E0D82EC601B5012DE133EF41E050E00F
:1006800054D027EA31E440E050E036D07B018C01C1
:10069000C601B5012DE133EF41E050E046D0CA017B
:1006A000B9012CEE34EF4FEF5FEF26D06E0D7F1DBA
:1006B000801F911F97FF04C0615070408040904898
:1006C000688379838A839B839B013F77C901CDB778
:1006D000DEB7EAE069C0B7DF089580E690E0B3DFF7
:1006E0000895A0E0B0E08093600090936100A09333
:1006F0006200B09363000895FF27EE27BB27AA2767
:1007000060FF04C0A20FB31FE41FF51F220F331FA9
:10071000441F551F969587957795679589F700979C
:10072000760771F7CF01BD01089597FB092E0526C5
:100730000ED057FD04D04BD00AD0001C38F4509591
:100740004095309521953F4F4F4F5F4F0895F6F7F5
:1007500090958095709561957F4F8F4F9F4F08952D
:100760002F923F924F925F926F927F928F929F92C1
:10077000AF92BF92CF92DF92EF92FF920F931F93AF
:10078000CF93DF93CDB7DEB7CA1BDB0B0FB6F89460
:10079000DEBF0FBECDBF09942A88398848885F84A0
:1007A0006E847D848C849B84AA84B984C884DF8011
:1007B000EE80FD800C811B81AA81B981CE0FD11DF5
:1007C0000FB6F894DEBF0FBECDBFED010895A1E2D4
:1007D0001A2EAA1BBB1BFD010DC0AA1FBB1FEE1FBB
:1007E000FF1FA217B307E407F50720F0A21BB30B06
:1007F000E40BF50B661F771F881F991F1A9469F782
:1008000060957095809590959B01AC01BD01CF01DD
:060810000895F894FFCFEB
:0408160001000000DD
:00000001FF
