:1000000014C0F7C028C12CC02BC02AC029C028C0EA
:1000100027C026C025C051C123C0D5C121C020C0E2
:100020001FC01EC01DC08CC11BC011241FBECFE548
:10003000D1E0DEBFCDBF10E0A4E6B0E001C01D926C
:10004000A43BB107E1F710E0A0E6B0E0EEE4F8E091
:1000500002C005900D92A436B107D9F736D2F5C388
:10006000CFCF80918C0090918D00019759F58FE052
:1000700088BB88E893E129E130E0F9013197F1F795
:100080000197D9F718BA88E893E129E130E0F9013E
:100090003197F1F70197D9F78FE088BB88E893E1B2
:1000A00029E130E0F9013197F1F70197D9F718BA52
:1000B00088E893E129E130E0F9013197F1F7019700
:1000C000D9F708958FE088BB88E893E129E130E013
:1000D000F9013197F1F70197D9F718BA88E893E158
:1000E00029E130E0F9013197F1F70197D9F78FE075
:1000F00088BB88E893E129E130E0F9013197F1F715
:100100000197D9F718BA88E893E129E130E0F901BD
:100110003197F1F70197D9F78FE088BB88E893E131
:1001200029E130E0F9013197F1F70197D9F718BAD1
:1001300088E893E129E130E0F9013197F1F701977F
:10014000D9F708954091880050918900ECE6F0E0DD
:1001500020E030E0A4E071E068E020C0808191817F
:100160008230910571F0833091051CF4019799F468
:1001700006C08330910539F0049769F40AC068BB62
:1001800009C0A8BB07C089B7816089BF12BE16BE6F
:1001900002C078BB18BA2F5F3F4F3296241735073D
:1001A000ECF28091B2009091B300885C9040909303
:1001B000B3008093B2000895609188007091890027
:1001C000ACE6B0E0E0E9F0E040E050E00EC02D9198
:1001D0003D91819191912817390729F010928F0054
:1001E00010928E0008954F5F5F4F461757077CF3BC
:1001F00008951F920F920FB60F9211242F933F93E1
:100200008F939F93EF93FF9321E030E030938B0027
:1002100020938A0080918E0090918F00892B81F02D
:100220008091AE009091AF00FC01EE0FFF1FE057F0
:10023000FF4F3183208301969093AF008093AE00EF
:10024000FF91EF919F918F913F912F910F900FBE52
:100250000F901F9018951F920F920FB60F921124B6
:100260002F933F938F939F93EF93FF9322E030E080
:1002700030938B0020938A0080918E0090918F00A4
:10028000892B81F08091AE009091AF00FC01EE0FC0
:10029000FF1FE057FF4F3183208301969093AF00FB
:1002A0008093AE00FF91EF919F918F913F912F919D
:1002B0000F900FBE0F901F9018951F920F920FB6C0
:1002C0000F9211242F933F934F935F938F939F939C
:1002D000EF93FF9343E050E050938B0040938A00EC
:1002E00020916A0030916B002095309530936B001F
:1002F00020936A0080918E0090918F00019799F46D
:100300002130310581F48091AE009091AF00FC0165
:10031000EE0FFF1FE057FF4F5183408301969093EC
:10032000AF008093AE00FF91EF919F918F915F910D
:100330004F913F912F910F900FBE0F901F901895E6
:100340001F920F920FB60F9211242F933F934F934A
:100350005F938F939F93EF93FF9344E050E050930C
:100360008B0040938A0020916A0030916B002095A9
:10037000309530936B0020936A0080918E009091AD
:100380008F00019799F42130310581F48091AE00FE
:100390009091AF00FC01EE0FFF1FE057FF4F51831C
:1003A000408301969093AF008093AE00FF91EF9150
:1003B0009F918F915F914F913F912F910F900FBE21
:1003C0000F901F9018951F920F920FB60F92112445
:1003D0002F938F939F9382E088BB8091AC00909184
:1003E000AD0001C0019627E280319207DCF318BA14
:1003F0001092AD001092AC0019BE9F918F912F9179
:100400000F900FBE0F901F901895CF93DF9381D15F
:1004100064E070E00DD10196C0E0D0E0FE01E0574D
:10042000FF4F11821082FE01E459FF4F91838083B8
:1004300070D164E070E0FCD001962296CC31D105F9
:1004400069F7DF91CF9108958FE087BB88EE8BBF6E
:1004500080E880BD84E084B98AE085BF10BE13BE09
:1004600080B7826080BF83B7856083BF12BE109261
:100470008D0010928C0010928F0010928E001092BE
:100480008B0010928A001092AF001092AE00109272
:10049000B1001092B0001092AD001092AC0081E05B
:1004A00090E090936B0080936A0090938900809312
:1004B000880080ED97E09093B3008093B200789429
:1004C00080E090E02AD1A1DF0895AF92BF92CF9251
:1004D000DF92EF92FF920F931F93CF93DF93B4DFDE
:1004E00064E0A62EB12C02E010E0C1E0D0E050EDB7
:1004F000C52E57E0D52E43E0E42EF12C40918C0020
:1005000050918D004230510531F1433051053CF49A
:100510004115510559F041305105A1F716C043303E
:10052000510559F14430510569F762C080918A0044
:1005300090918B00892B11F3D0938D00C0938C0088
:1005400010928B0010928A00D9CF8BDD10938D0012
:1005500000938C00D3CF1092AF001092AE00D093D6
:100560006B00C0936A00D0938F00C0938E00EADDC9
:10057000F0928D00E0928C00C1CF2091AE003091BE
:10058000AF0080918800909189002817390711F5F4
:1005900013DE80918E0090918F00009721F00197DB
:1005A00009F0ACCF05C0B0928D00A0928C00A6CF10
:1005B00010938D0000938C001092AF001092AE004B
:1005C0008091880090918900019690938900809392
:1005D000880094CF50938D0040938C008091B000A0
:1005E0009091B10001969093B1008093B00086CFB6
:1005F00038DD10928B0010928A001092AF0010929A
:10060000AE00D0938900C0938800D0936B00C09354
:100610006A00D092B300C092B20010928D00109286
:100620008C00F3DE8091B0009091B10076D066CF5F
:1006300097FB092E07260AD077FD04D00CD006D0F0
:1006400000201AF4709561957F4F0895F6F7909504
:1006500081959F4F0895AA1BBB1B51E107C0AA1F9C
:10066000BB1FA617B70710F0A61BB70B881F991F53
:100670005A95A9F780959095BC01CD010895A0E009
:10068000B0E0E4E4F3E090C0EC01A880B980CA8057
:10069000DB80A114B104C104D10441F484E2A82E8A
:1006A00089EDB82E8BE5C82E87E0D82EC601B5019E
:1006B0002DE133EF41E050E054D027EA31E440E04F
:1006C00050E036D07B018C01C601B5012DE133EF3E
:1006D00041E050E046D0CA01B9012CEE34EF4FEFB3
:1006E0005FEF26D06E0D7F1D801F911F97FF04C006
:1006F0006150704080409048688379838A839B83EF
:100700009B013F77C901CDB7DEB7EAE069C0B7DF2B
:10071000089580E690E0B3DF0895A0E0B0E0809314
:10072000600090936100A0936200B093630008950D
:10073000FF27EE27BB27AA2760FF04C0A20FB31F25
:10074000E41FF51F220F331F441F551F96958795F1
:100750007795679589F70097760771F7CF01BD0107
:10076000089597FB092E05260ED057FD04D04BD0D7
:100770000AD0001C38F450954095309521953F4F94
:100780004F4F5F4F0895F6F790958095709561955E
:100790007F4F8F4F9F4F08952F923F924F925F92BE
:1007A0006F927F928F929F92AF92BF92CF92DF9281
:1007B000EF92FF920F931F93CF93DF93CDB7DEB7E6
:1007C000CA1BDB0B0FB6F894DEBF0FBECDBF09947A
:1007D0002A88398848885F846E847D848C849B84D1
:1007E000AA84B984C884DF80EE80FD800C811B81DF
:1007F000AA81B981CE0FD11D0FB6F894DEBF0FBE0E
:10080000CDBFED010895A1E21A2EAA1BBB1BFD016D
:100810000DC0AA1FBB1FEE1FFF1FA217B307E407DF
:10082000F50720F0A21BB30BE40BF50B661F771F37
:10083000881F991F1A9469F7609570958095909517
:0E0840009B01AC01BD01CF010895F894FFCFDC
:04084E0001000000A5
:00000001FF
