:1000000014C047C178C12CC02BC02AC029C028C049
:1000100027C026C025C0A1C123C022C021C020C046
:100020001FC01EC01DC0CBC11BC011241FBECFE509
:10003000D1E0DEBFCDBF20E0A4E6B0E001C01D925C
:10004000A83AB207E1F710E0A0E6B0E0E2EEF6E091
:1000500002C005900D92A436B107D9F7E2D13FC393
:10006000CFCFEF92FF920F931F93CF93DF93D1D215
:1000700064E070E05DD20196C8E8D0E004E610E0EC
:1000800024E0E22EF12C19921992F80181939193B8
:100090008F01BFD2B7014CD20196F0E0C43ADF071E
:1000A00091F7DF91CF911F910F91FF90EF900895FD
:1000B0008FE087BB88EE8BBF80E880BD84E084B989
:1000C00085E085BF109285001092840081E090E069
:1000D0009093870080938600109283001092820094
:1000E0001092A5001092A4001092A7001092A600F2
:1000F000909381008093800078948091A6009091E5
:10010000A7008BD2AECF809184009091850001979B
:1001100041F58FE088BB2FE936E891E0215030406F
:100120009040E1F700C0000018BA2FE936E891E0EE
:10013000215030409040E1F700C0000088BB2FE91B
:1001400036E881E0215030408040E1F700C00000F7
:1001500018BA9FE926E831E0915020403040E1F79D
:100160003BC08FE088BB9FE926E831E091502040FA
:100170003040E1F700C0000018BA9FE926E831E0FE
:10018000915020403040E1F700C0000088BB9FE95B
:1001900026E831E0915020403040E1F700C00000F7
:1001A00018BA9FE926E831E0915020403040E1F74D
:1001B00000C0000088BB8FE996E821E081509040A4
:1001C0002040E1F700C0000018BA3FE986E891E05E
:1001D000315080409040E1F700C000000895E4E60F
:1001E000F0E020E030E044E052E061E078E080912F
:1001F000800090918100281739070CF58191919129
:100200008230910561F024F40197B1F478BB0AC003
:100210008330910531F0049779F468BB03C048BB83
:1002200001C058BB8FE79AE1A6E081509040A04002
:10023000E1F700C0000018BA2F5F3F4FD8CF0895F4
:100240008091800090918100181619060CF520917C
:100250006400309165008091880090918900281792
:10026000390739F481E090E090938700809386000D
:10027000089584E088BB2FE78AE196E02150804012
:100280009040E1F700C000001092870010928600B5
:1002900008951F920F920FB60F9211242F933F9340
:1002A0008F939F93EF93FF9321E030E0309383008F
:1002B000209382008091860090918700892B81F0A5
:1002C0008091A4009091A500FC01EE0FFF1FE8575C
:1002D000FF4F3183208301969093A5008093A40063
:1002E000FF91EF919F918F913F912F910F900FBEB2
:1002F0000F901F9018951F920F920FB60F92112416
:100300002F933F938F939F93EF93FF9322E030E0DF
:100310003093830020938200809186009091870023
:10032000892B81F08091A4009091A500FC01EE0F33
:10033000FF1FE857FF4F3183208301969093A5005C
:100340008093A400FF91EF919F918F913F912F9106
:100350000F900FBE0F901F9018951F920F920FB61F
:100360000F9211242F933F938F939F93EF93FF93BB
:1003700023E030E030938300209382008091860058
:1003800090918700892B81F08091A4009091A50025
:10039000FC01EE0FFF1FE857FF4F318320830196CA
:1003A0009093A5008093A400FF91EF919F918F916E
:1003B0003F912F910F900FBE0F901F9018951F9295
:1003C0000F920FB60F9211242F933F938F939F9309
:1003D000EF93FF9324E030E030938300209382007A
:1003E0008091860090918700892B81F08091A400F4
:1003F0009091A500FC01EE0FFF1FE857FF4F3183DE
:10040000208301969093A5008093A400FF91EF9123
:100410009F918F913F912F910F900FBE0F901F9042
:10042000189546DE84E0E82EF12C02E010E0C1E0F1
:10043000D0E093E0C92ED12C80918400909185006A
:1004400082309105C9F17CF4009759F18130910512
:10045000B9F759DE1092A5001092A4001093850000
:1004600000938400E9CF8330910581F184309105B8
:1004700039F749DE10928300109282001092A50095
:100480001092A400D0938100C09380001092850048
:1004900010928400E6DD8091A6009091A700BDD067
:1004A000CBCF8091820090918300892B29F2D09349
:1004B0008500C0938400C0CFD0938700C09386008E
:1004C0008EDED0928500C0928400B6CF2091A40029
:1004D0003091A50080918000909181002817390704
:1004E000E9F4AEDE8091860090918700009789F054
:1004F000019709F0A1CF10938500009384008091AB
:1005000080009091810001969093810080938000FB
:1005100093CFF0928500E09284008ECF8091A60068
:100520009091A70001969093A7008093A60084CF96
:1005300097FB072E16F4009406D077FD08D00BD059
:1005400007FC05D03EF4909581959F4F08957095D6
:1005500061957F4F0895AA1BBB1B51E107C0AA1FDD
:10056000BB1FA617B70710F0A61BB70B881F991F54
:100570005A95A9F780959095BC01CD0108958F9269
:100580009F92AF92BF92CF92DF92EF92FF92CF9362
:10059000DF93EC01688179818A819B816115710506
:1005A0008105910521F464E279ED8BE597E02DE179
:1005B00033EF41E050E055D049015A0127EA31E4D8
:1005C00040E050E035D06B017C012CEE34EF4FEF72
:1005D0005FEFC501B4012CD0DC01CB018C0D9D1D5A
:1005E000AE1DBF1DB7FF03C00197A109B0488883A6
:1005F0009983AA83BB839F77DF91CF91FF90EF9080
:10060000DF90CF90BF90AF909F908F900895B7DF0D
:10061000089580E690E0B3DF0895A0E0B0E0809315
:10062000600090936100A0936200B093630008950E
:10063000EE27FF27AA27BB2708C0A20FB31FE41F7E
:10064000F51F220F331F441F551F969587957795E9
:10065000679598F37040A9F7009799F7BD01CF010E
:100660000895052E97FB16F400940FD057FD05D082
:1006700014D007FC02D046F408C050954095309540
:1006800021953F4F4F4F5F4F0895909580957095FE
:1006900061957F4F8F4F9F4F0895A1E21A2EAA1B9D
:1006A000BB1BFD010DC0AA1FBB1FEE1FFF1FA21722
:1006B000B307E407F50720F0A21BB30BE40BF50B1F
:1006C000661F771F881F991F1A9469F760957095A8
:1006D000809590959B01AC01BD01CF010895F894E0
:0206E000FFCF4A
:0406E2000100000013
:00000001FF
