:1000000014C023C022C021C020C01FC01EC01DC0FC
:100010001CC01BC01AC025C018C017C016C015C010
:1000200014C013C012C011C010C011241FBECFE5F0
:10003000D1E0DEBFCDBF10E0A0E6B0E001C01D9270
:10004000A236B107E1F702D058C0DACF88E087BB0B
:100050008BB780628BBF80E880BD789488E088BBD6
:10006000FECF1F920F920FB60F9211242F933F9342
:100070008F939F93EF93FF93809160009091610025
:10008000892B81F58FEF9FEF909361008093600043
:1000900088E088BB80E197E229E130E0F9013197FF
:1000A000F1F70197D9F718BA80E197E229E130E03A
:1000B000F9013197F1F70197D9F788E088BB80E122
:1000C00097E229E130E0F9013197F1F70197D9F78B
:1000D00018BA80E197E229E130E0F9013197F1F7B0
:1000E0000197D9F7FF91EF919F918F913F912F91B8
:0E00F0000F900FBE0F901F901895F894FFCF41
:00000001FF
