:100000000C945D000C9485000C9485000C94850084
:100010000C9485000C9485000C9485000C9485004C
:100020000C9485000C9485000C9485000C94FB03C3
:100030000C9485000C9485000C9485000C9485002C
:100040000C9459030C9485000C94C9030C94A303DD
:100050000C9485000C9485000C9485000C9485000C
:100060000C9485000C94850000000008000201003B
:100070000003040700000000000000000000000072
:10008000250028002B0000000000240027002A0083
:10009000040404040404040402020202020203032E
:1000A0000303030301020408102040800102040836
:1000B0001020010204081020B70411241FBECFEF46
:1000C000D8E0DEBFCDBF11E0A0E0B1E0E2E4FEE0A9
:1000D00002C005900D92AC34B107D9F722E0ACE430
:1000E000B1E001C01D92AE31B207E1F710E0CDE5FD
:1000F000D0E004C02197FE010E941907CC35D1073A
:10010000C9F70E942E050C941F070C94000090E084
:10011000FC01EC55FF4F249180579F4FFC018491C7
:10012000882399F090E0880F991FFC01EA57FF4F50
:10013000A591B491FC01E458FF4F859194918FB73C
:10014000F894EC91E22BEC938FBF089590E0FC01C2
:10015000E859FF4F2491FC01EC55FF4F3491FC010D
:10016000E057FF4FE491EE23C9F0222339F023300A
:1001700001F1A8F4213019F1223029F1F0E0EE0F5D
:10018000FF1FE458FF4FA591B4918FB7F894EC91FD
:10019000611126C030953E233C938FBF08952730D0
:1001A000A9F02830C9F0243049F7809180008F7D74
:1001B00003C0809180008F7780938000DFCF84B56B
:1001C0008F7784BDDBCF84B58F7DFBCF8091B0006E
:1001D0008F778093B000D2CF8091B0008F7DF9CF20
:1001E0003E2BDACF8E50806480937C0080917A0021
:1001F000806480937A0080917A0086FDFCCF8091A4
:1002000078009091790008953FB7F8948091520159
:1002100090915301A0915401B091550126B5A89B2E
:1002200005C02F3F19F00196A11DB11D3FBFBA2F88
:10023000A92F982F8827BC01CD01620F711D811D48
:10024000911D42E0660F771F881F991F4A95D1F7CD
:1002500008958F929F92AF92BF92CF92DF92EF92CA
:10026000FF924B015C010E9404016B017C010E9422
:1002700004016C197D098E099F09683E7340810550
:100280009105A8F321E0821A9108A108B10888EE2F
:10029000C80E83E0D81EE11CF11C81149104A10456
:1002A000B10429F7FF90EF90DF90CF90BF90AF900F
:1002B0009F908F900895AF92BF92CF92DF92EF926E
:1002C000FF920F931F93CF93DF936C017B018B0100
:1002D000040F151FEB015E01AE18BF08C017D10750
:1002E00059F06991D601ED91FC910190F081E02DDA
:1002F000C6010995892B79F7C501DF91CF911F912F
:100300000F91FF90EF90DF90CF90BF90AF90089546
:10031000FC01538D448D252F30E0842F90E0821B0B
:10032000930B541710F0CF96089501970895FC0190
:10033000918D828D981761F0A28DAE0FBF2FB11DE8
:100340005D968C91928D9F5F9F73928F90E0089540
:100350008FEF9FEF0895FC01918D828D981731F0FA
:10036000828DE80FF11D858D90E008958FEF9FEF4E
:100370000895FC01918D228D892F90E0805C9F4F24
:10038000821B91098F739927089586E591E00E9459
:10039000B90121E0892B09F420E0822F089580E043
:1003A00090E0892B29F00E94C50181110C94000076
:1003B0000895FC01A48DA80FB92FB11DA35ABF4FFA
:1003C0002C91848D90E001968F739927848FA68954
:1003D000B7892C93A089B1898C91837080648C93A8
:1003E000938D848D981306C00288F389E02D808157
:1003F0008F7D80830895EF92FF920F931F93CF9389
:10040000DF93EC0181E0888F9B8D8C8D98131AC04F
:10041000E889F989808185FF15C09FB7F894EE8936
:10042000FF896083E889F989808183708064808393
:100430009FBF81E090E0DF91CF911F910F91FF90DE
:10044000EF900895F62E0B8D10E00F5F1F4F0F7386
:100450001127E02E8C8D8E110CC00FB607FCFACF41
:10046000E889F989808185FFF5CFCE010E94D90105
:10047000F1CFEB8DEC0FFD2FF11DE35AFF4FF08212
:100480009FB7F8940B8FEA89FB8980818062CFCF78
:10049000CF93DF93EC01888D8823B9F0AA89BB89BB
:1004A000E889F9898C9185FD03C0808186FD0DC0A6
:1004B0000FB607FCF7CF8C9185FFF2CF808185FFC7
:1004C000EDCFCE010E94D901E9CFDF91CF91089500
:1004D0008F929F92AF92BF92FF920F931F93CF93F1
:1004E000DF93FC01F0808BE08F1508F44AC0828115
:1004F00008E512E0081B110987FD1395000F111F75
:10050000000F111F8181C8E8D0E0C81BD10987FD09
:10051000D395CC0FDD1FCC0FDD1F4E010D2E000C2F
:10052000AA08BB089801012E000C440B550B281992
:1005300039094A095B09DB010E94D40624EB30E04B
:1005400040E050E00E94AA06820E931EA41EB51E33
:100550008C169D062CF0E801801691060CF4E4013F
:100560002297CC0FDD1F2FB7F8948F2D90E0FC0160
:10057000EE0FFF1FE80FF91FED50FE4FD283C1832E
:100580002FBFDF91CF911F910F91FF90BF90AF9040
:100590009F908F900895892B79F41092800082E0CB
:1005A000809381001092850010928400B19A80910E
:1005B0006F00826080936F0008958F929F92AF9238
:1005C000BF920F931F93CF93DF93CDB7DEB7A19761
:1005D0000FB6F894DEBF0FBECDBF19A2423008F4AB
:1005E0004AE08E010F5D1F4F842E912CB12CA12C5F
:1005F000A50194010E94DC06E62FB901CA01EA3088
:1006000044F5E05DD801EE938D01232B242B252B9F
:1006100079F790E080E0109769F0FD0101900020EB
:10062000E9F73197AF014A1B5B0BBD0186E591E00D
:100630000E945B01A1960FB6F894DEBF0FBECDBF3E
:10064000DF91CF911F910F91BF90AF909F908F90AE
:100650000895E95CD7CFCF92DF92EF92FF92CF93CC
:10066000DF936B017C016DE286E591E00E94FB0166
:10067000EC0166277727CB016C197D098E099F094C
:100680004AE00E94DD028C0F9D1FDF91CF91FF9009
:10069000EF90DF90CF900895FC0101900020E9F7E2
:1006A0003197AF01481B590BBC0186E591E00C94D2
:1006B0005B011F920F920FB60F9211242F933F935D
:1006C0008F939F93AF93BF9380914E0190914F0171
:1006D000A0915001B091510130914D0123E0230FC1
:1006E0002D3758F50196A11DB11D20934D01809322
:1006F0004E0190934F01A0935001B093510180910E
:10070000520190915301A0915401B091550101966D
:10071000A11DB11D8093520190935301A0935401E8
:10072000B0935501BF91AF919F918F913F912F91C0
:100730000F900FBE0F901F90189526E8230F02967A
:10074000A11DB11DD2CF1F920F920FB60F9211248F
:100750002F933F934F935F936F937F938F939F93C9
:10076000AF93BF93EF93FF9386E591E00E94D90189
:10077000FF91EF91BF91AF919F918F917F916F9179
:100780005F914F913F912F910F900FBE0F901F904F
:1007900018951F920F920FB60F9211242F938F93DB
:1007A0009F93EF93FF93E0916601F0916701808141
:1007B000E0916C01F0916D0182FD1BC090818091F0
:1007C0006F018F5F8F7320917001821741F0E0916C
:1007D0006F01F0E0EA5AFE4F958F80936F01FF9111
:1007E000EF919F918F912F910F900FBE0F901F90BF
:1007F00018958081F4CF1F920F920FB60F9211249B
:100800002F933F934F935F936F937F938F939F9318
:10081000AF93BF93CF93DF93EF93FF9380914C01FE
:10082000C0911702D0E087FF24C01092850010927B
:10083000840080914C018F5F80934C0180914C012A
:10084000082E000C990B8C179D0724F480914C0105
:100850008C30C4F18091840090918500049680349E
:100860009C4908F47AC08091840090918500049698
:1008700076C080914C01082E000C990B8C179D07B7
:10088000C4F6E0914C018E2FEE0F990BFC01EE0F98
:10089000FF1FE80FF91FED50FE4F808186FFC9CF83
:1008A000E0914C018E2FEE0F990BFC01EE0FFF1F14
:1008B000E80FF91FED50FE4F808160E08F730E94BA
:1008C000A600B7CF2091840030918500E0914C01C3
:1008D0008E2FEE0F990BFC01EE0FFF1FE80FF91F93
:1008E000ED50FE4F81819281820F931F909389007A
:1008F00080938800E0914C018E2FEE0F990BFC0144
:10090000EE0FFF1FE80FF91FED50FE4F808186FFAD
:1009100011C0E0914C018E2FEE0F990BFC01EE0FF0
:10092000FF1FE80FF91FED50FE4F808161E08F73CC
:100930000E94A600FF91EF91DF91CF91BF91AF91FF
:100940009F918F917F916F915F914F913F912F91E7
:100950000F900FBE0F901F90189580E49CE9909324
:100960008900809388008FEF80934C01E3CF109231
:1009700059011092580188EE93E0A0E0B0E0809316
:100980005A0190935B01A0935C01B0935D0184E0F8
:1009900091E0909357018093560185EC90E09093FD
:1009A00063018093620184EC90E0909365018093F1
:1009B000640180EC90E0909367018093660181EC84
:1009C00090E0909369018093680182EC90E09093AD
:1009D0006B0180936A0186EC90E090936D018093A7
:1009E0006C0110926F0110927001109271011092BF
:1009F0007201809117028C3048F591E0980F909326
:100A0000170280931B0290E0FC01EE0FFF1FE80F1E
:100A1000F91FED50FE4F88EB9BE09283818380911C
:100A200017028C30B8F491E0980F909317028093DE
:100A3000180290E0FC01EE0FFF1FE80FF91FED50C8
:100A4000FE4F88EB9BE09283818308958FEF809324
:100A50001B02E5CF8FEF809318020895789484B538
:100A6000826084BD84B5816084BD85B5826085BDAA
:100A700085B5816085BD80916E00816080936E0038
:100A8000109281008091810082608093810080912A
:100A900081008160809381008091800081608093DB
:100AA00080008091B10084608093B1008091B0009B
:100AB00081608093B00080917A00846080937A0096
:100AC00080917A00826080937A0080917A008160C0
:100AD00080937A0080917A00806880937A001092E7
:100AE000C10080911B028C3008F042C082E00E945D
:100AF000870080911B02282F30E0F901EE0FFF1FC5
:100B0000E20FF31FED50FE4F9081907C9260908336
:100B100010921C0210921D022CE0622F0E940D0701
:100B200090E0829FB001112430E020E0AB01420F41
:100B3000531FFA01EE0FFF1FE40FF51FED50FE4F9C
:100B4000408146FD07C02F5F3F4F2C30310571F7C4
:100B50000E94CB02E0911B028E2F90E0FC01EE0F71
:100B6000FF1FE80FF91FED50FE4F808180648083E6
:100B7000809118028C3008F042C083E00E94870008
:100B800080911802282F30E0F901EE0FFF1FE20FCD
:100B9000F31FED50FE4F9081907C936090831092F4
:100BA000190210921A022CE0622F0E940D0790E0A9
:100BB000829FB001112430E020E0AB01420F531FAF
:100BC000FA01EE0FFF1FE40FF51FED50FE4F4081BD
:100BD00046FD07C02F5F3F4F2C30310571F70E9453
:100BE000CB02E09118028E2F90E0FC01EE0FFF1F68
:100BF000E80FF91FED50FE4F808180648083E09103
:100C00006601F091670182E08083E0916201F091DA
:100C100063011082E0916401F09165018FEC8083A3
:100C200010926E01E0916A01F0916B0186E0808381
:100C3000E0916801F0916901808180618083E09199
:100C40006801F0916901808188608083E09168018A
:100C5000F0916901808180688083E0916801F09162
:100C6000690180818F7D808370E060E08BE192E09C
:100C70000E94680270E060E088E192E00E946802F1
:100C800064EC79E080E090E00E94290100E010E04F
:100C90008FE00E94F2007C0180E10E94F20081E17D
:100CA0000E94F20082E10E94F200EC0182E191E0F8
:100CB0000E944C03B7010F2C000C880B990B97FF77
:100CC00041C00E942B038EE291E00E944C0364EB32
:100CD00070E085EFE81681E0F80614F46AE570E04C
:100CE00088E192E00E94680280E391E00E944C0358
:100CF000BE010D2E000C880B990B97FF27C00E9498
:100D00002B038EE291E00E944C0364EB70E0C53F40
:100D1000D14014F46AE570E08BE192E00E94680231
:100D200068EE73E080E090E00E9429010115110552
:100D300009F4AECF0E94C501882309F4A9CF0E940F
:100D40000000A6CF4AE00E94DD02BDCF4AE00E942B
:100D5000DD02D7CF052E97FB1EF400940E94C1063A
:100D600057FD07D00E94DC0607FC03D04EF40C941C
:100D7000C10650954095309521953F4F4F4F5F4F9D
:100D8000089590958095709561957F4F8F4F9F4FF7
:100D900008950E94FE06A59F900DB49F900DA49FFC
:100DA000800D911D11240895B7FF0C94C9060E946F
:100DB000C906821B930B0895A1E21A2EAA1BBB1B26
:100DC000FD010DC0AA1FBB1FEE1FFF1FA217B30717
:100DD000E407F50720F0A21BB30BE40BF50B661F2D
:100DE000771F881F991F1A9469F7609570958095F1
:100DF00090959B01AC01BD01CF010895A29FB00168
:100E0000B39FC001A39F700D811D1124911DB29F3E
:100E1000700D811D1124911D0895991B79E004C066
:100E2000991F961708F0961B881F7A95C9F7809529
:100E30000895EE0FFF1F0590F491E02D0994F894AA
:020E4000FFCFE2
:100E420000000000FB015B0188014802B901970123
:100E5200AB0156616C6F7220616E616C6F67696382
:100E62006F206465204C445220544C3A20000A0002
:100E720056616C6F7220616E616C6F6769636F207F
:0C0E82006465204C44522042523A20008B
:00000001FF
